{"contracts/reward/RewardDistributor.sol":{"RewardDistributor":{"abi":[{"inputs":[{"internalType":"address","name":"_tokenA","type":"address"},{"internalType":"address","name":"_tokenB","type":"address"},{"internalType":"uint16","name":"_rewardPercentBps","type":"uint16"},{"internalType":"uint256","name":"_blockInterval","type":"uint256"}],"stateMutability":"nonpayable","type":"constructor"},{"inputs":[],"name":"AccessControlBadConfirmation","type":"error"},{"inputs":[{"internalType":"address","name":"account","type":"address"},{"internalType":"bytes32","name":"neededRole","type":"bytes32"}],"name":"AccessControlUnauthorizedAccount","type":"error"},{"anonymous":false,"inputs":[{"indexed":false,"internalType":"uint256","name":"oldValue","type":"uint256"},{"indexed":false,"internalType":"uint256","name":"newValue","type":"uint256"}],"name":"BlockIntervalUpdated","type":"event"},{"anonymous":false,"inputs":[{"indexed":false,"internalType":"uint256","name":"oldValue","type":"uint256"},{"indexed":false,"internalType":"uint256","name":"newValue","type":"uint256"}],"name":"MaxParticipantsUpdated","type":"event"},{"anonymous":false,"inputs":[{"indexed":true,"internalType":"address","name":"account","type":"address"}],"name":"ParticipantAdded","type":"event"},{"anonymous":false,"inputs":[{"indexed":true,"internalType":"address","name":"account","type":"address"}],"name":"ParticipantRemoved","type":"event"},{"anonymous":false,"inputs":[{"indexed":true,"internalType":"address","name":"by","type":"address"}],"name":"Paused","type":"event"},{"anonymous":false,"inputs":[{"indexed":false,"internalType":"uint16","name":"oldValue","type":"uint16"},{"indexed":false,"internalType":"uint16","name":"newValue","type":"uint16"}],"name":"PercentUpdated","type":"event"},{"anonymous":false,"inputs":[{"indexed":true,"internalType":"address","name":"account","type":"address"},{"indexed":false,"internalType":"uint256","name":"balanceA","type":"uint256"},{"indexed":false,"internalType":"uint256","name":"rewardAmount","type":"uint256"},{"indexed":false,"internalType":"uint16","name":"percentBps","type":"uint16"}],"name":"RewardPaid","type":"event"},{"anonymous":false,"inputs":[{"indexed":false,"internalType":"uint256","name":"blockNumber","type":"uint256"},{"indexed":false,"internalType":"uint256","name":"percentBps","type":"uint256"},{"indexed":false,"internalType":"uint256","name":"participantsCount","type":"uint256"}],"name":"RewardTriggered","type":"event"},{"anonymous":false,"inputs":[{"indexed":true,"internalType":"bytes32","name":"role","type":"bytes32"},{"indexed":true,"internalType":"bytes32","name":"previousAdminRole","type":"bytes32"},{"indexed":true,"internalType":"bytes32","name":"newAdminRole","type":"bytes32"}],"name":"RoleAdminChanged","type":"event"},{"anonymous":false,"inputs":[{"indexed":true,"internalType":"bytes32","name":"role","type":"bytes32"},{"indexed":true,"internalType":"address","name":"account","type":"address"},{"indexed":true,"internalType":"address","name":"sender","type":"address"}],"name":"RoleGranted","type":"event"},{"anonymous":false,"inputs":[{"indexed":true,"internalType":"bytes32","name":"role","type":"bytes32"},{"indexed":true,"internalType":"address","name":"account","type":"address"},{"indexed":true,"internalType":"address","name":"sender","type":"address"}],"name":"RoleRevoked","type":"event"},{"anonymous":false,"inputs":[{"indexed":true,"internalType":"address","name":"by","type":"address"}],"name":"Unpaused","type":"event"},{"inputs":[],"name":"DEFAULT_ADMIN_ROLE","outputs":[{"internalType":"bytes32","name":"","type":"bytes32"}],"stateMutability":"view","type":"function"},{"inputs":[],"name":"OPERATOR_ROLE","outputs":[{"internalType":"bytes32","name":"","type":"bytes32"}],"stateMutability":"view","type":"function"},{"inputs":[{"internalType":"address","name":"account","type":"address"}],"name":"addParticipant","outputs":[],"stateMutability":"nonpayable","type":"function"},{"inputs":[],"name":"blockInterval","outputs":[{"internalType":"uint256","name":"","type":"uint256"}],"stateMutability":"view","type":"function"},{"inputs":[],"name":"canTrigger","outputs":[{"internalType":"bool","name":"","type":"bool"}],"stateMutability":"view","type":"function"},{"inputs":[],"name":"getParticipants","outputs":[{"internalType":"address[]","name":"list","type":"address[]"}],"stateMutability":"view","type":"function"},{"inputs":[{"internalType":"bytes32","name":"role","type":"bytes32"}],"name":"getRoleAdmin","outputs":[{"internalType":"bytes32","name":"","type":"bytes32"}],"stateMutability":"view","type":"function"},{"inputs":[{"internalType":"address","name":"account","type":"address"}],"name":"grantOperator","outputs":[],"stateMutability":"nonpayable","type":"function"},{"inputs":[{"internalType":"bytes32","name":"role","type":"bytes32"},{"internalType":"address","name":"account","type":"address"}],"name":"grantRole","outputs":[],"stateMutability":"nonpayable","type":"function"},{"inputs":[{"internalType":"bytes32","name":"role","type":"bytes32"},{"internalType":"address","name":"account","type":"address"}],"name":"hasRole","outputs":[{"internalType":"bool","name":"","type":"bool"}],"stateMutability":"view","type":"function"},{"inputs":[],"name":"lastTriggerBlock","outputs":[{"internalType":"uint256","name":"","type":"uint256"}],"stateMutability":"view","type":"function"},{"inputs":[],"name":"maxParticipants","outputs":[{"internalType":"uint256","name":"","type":"uint256"}],"stateMutability":"view","type":"function"},{"inputs":[],"name":"nextTriggerBlock","outputs":[{"internalType":"uint256","name":"","type":"uint256"}],"stateMutability":"view","type":"function"},{"inputs":[],"name":"participantsCount","outputs":[{"internalType":"uint256","name":"","type":"uint256"}],"stateMutability":"view","type":"function"},{"inputs":[],"name":"pause","outputs":[],"stateMutability":"nonpayable","type":"function"},{"inputs":[],"name":"paused","outputs":[{"internalType":"bool","name":"","type":"bool"}],"stateMutability":"view","type":"function"},{"inputs":[],"name":"previewAllRewards","outputs":[{"internalType":"address[]","name":"accounts","type":"address[]"},{"internalType":"uint256[]","name":"rewards","type":"uint256[]"}],"stateMutability":"view","type":"function"},{"inputs":[{"internalType":"address","name":"user","type":"address"}],"name":"previewUserReward","outputs":[{"internalType":"uint256","name":"balanceA","type":"uint256"},{"internalType":"uint256","name":"rewardAmount","type":"uint256"}],"stateMutability":"view","type":"function"},{"inputs":[{"internalType":"address","name":"account","type":"address"}],"name":"removeParticipant","outputs":[],"stateMutability":"nonpayable","type":"function"},{"inputs":[{"internalType":"bytes32","name":"role","type":"bytes32"},{"internalType":"address","name":"callerConfirmation","type":"address"}],"name":"renounceRole","outputs":[],"stateMutability":"nonpayable","type":"function"},{"inputs":[{"internalType":"bytes32","name":"role","type":"bytes32"},{"internalType":"address","name":"account","type":"address"}],"name":"revokeRole","outputs":[],"stateMutability":"nonpayable","type":"function"},{"inputs":[],"name":"rewardPercentBps","outputs":[{"internalType":"uint16","name":"","type":"uint16"}],"stateMutability":"view","type":"function"},{"inputs":[{"internalType":"uint256","name":"newInterval","type":"uint256"}],"name":"setBlockInterval","outputs":[],"stateMutability":"nonpayable","type":"function"},{"inputs":[{"internalType":"uint256","name":"newMax","type":"uint256"}],"name":"setMaxParticipants","outputs":[],"stateMutability":"nonpayable","type":"function"},{"inputs":[{"internalType":"uint16","name":"newPercent","type":"uint16"}],"name":"setRewardPercentBps","outputs":[],"stateMutability":"nonpayable","type":"function"},{"inputs":[{"internalType":"bytes4","name":"interfaceId","type":"bytes4"}],"name":"supportsInterface","outputs":[{"internalType":"bool","name":"","type":"bool"}],"stateMutability":"view","type":"function"},{"inputs":[],"name":"tokenA","outputs":[{"internalType":"contract IERC20","name":"","type":"address"}],"stateMutability":"view","type":"function"},{"inputs":[],"name":"tokenB","outputs":[{"internalType":"contract IMintableERC20","name":"","type":"address"}],"stateMutability":"view","type":"function"},{"inputs":[],"name":"triggerIfInterval","outputs":[],"stateMutability":"nonpayable","type":"function"},{"inputs":[],"name":"triggerManual","outputs":[],"stateMutability":"nonpayable","type":"function"},{"inputs":[],"name":"unpause","outputs":[],"stateMutability":"nonpayable","type":"function"}],"evm":{"bytecode":{"linkReferences":{},"object":"60c06040523480156200001157600080fd5b506040516200191a3803806200191a833981016040819052620000349162000223565b6001600160a01b038416158015906200005557506001600160a01b03831615155b620000965760405162461bcd60e51b815260206004820152600c60248201526b5a65726f206164647265737360a01b60448201526064015b60405180910390fd5b6127108261ffff161115620000df5760405162461bcd60e51b815260206004820152600e60248201526d50657263656e74203e203130302560901b60448201526064016200008d565b6001600160a01b03848116608052831660a0526001805461ffff191661ffff84161790556002819055436003556103e86004556200011f60003362000157565b506200014c7f97667070c54ef182b0f5858b034beac1b6f3089aa2d3188bb1e8929f4fa9b9293362000157565b50505050506200027d565b6000828152602081815260408083206001600160a01b038516845290915281205460ff16620001fc576000838152602081815260408083206001600160a01b03861684529091529020805460ff19166001179055620001b33390565b6001600160a01b0316826001600160a01b0316847f2f8788117e7eff1d82e926ec794901d17c78024a50270940304540a733656f0d60405160405180910390a450600162000200565b5060005b92915050565b80516001600160a01b03811681146200021e57600080fd5b919050565b600080600080608085870312156200023a57600080fd5b620002458562000206565b9350620002556020860162000206565b9250604085015161ffff811681146200026d57600080fd5b6060959095015193969295505050565b60805160a05161165b620002bf60003960008181610323015261107e015260008181610217015281816106110152818161098b0152610fb7015261165b6000f3fe608060405234801561001057600080fd5b50600436106101e55760003560e01c8063852e546e1161010f578063c4c22e98116100a2578063dd60c89811610071578063dd60c89814610415578063dfafe10f1461041d578063e348da1314610430578063f5b541a61461044357600080fd5b8063c4c22e98146103de578063cce8f14c146103e7578063d547741f146103ef578063dc47f4bf1461040257600080fd5b80639b9fb285116100de5780639b9fb2851461038c578063a0a53ceb146103ad578063a217fddf146103c3578063ba6943f6146103cb57600080fd5b8063852e546e1461036057806387729fc81461036957806391d14854146103715780639b742f071461038457600080fd5b806336568abe116101875780635c975abb116101565780635c975abb146103135780635f64b55b1461031e578063668a2001146103455780638456cb591461035857600080fd5b806336568abe146102bb5780633f4ba83a146102ce578063590bc9b5146102d65780635aa68ac0146102fe57600080fd5b8063248a9ca3116101c3578063248a9ca31461026757806324924bf71461028a5780632bf7299b146102935780632f2ff15d146102a857600080fd5b806301ffc9a7146101ea5780630fc63d101461021257806316cfdbed14610251575b600080fd5b6101fd6101f836600461139c565b610458565b60405190151581526020015b60405180910390f35b6102397f000000000000000000000000000000000000000000000000000000000000000081565b6040516001600160a01b039091168152602001610209565b61025961048f565b604051908152602001610209565b6102596102753660046113c6565b60009081526020819052604090206001015490565b61025960045481565b6102a66102a13660046113c6565b6104a6565b005b6102a66102b63660046113fb565b610547565b6102a66102c93660046113fb565b610572565b6102a66105aa565b6102e96102e4366004611427565b6105ed565b60408051928352602083019190915201610209565b6103066106b7565b6040516102099190611487565b60075460ff166101fd565b6102397f000000000000000000000000000000000000000000000000000000000000000081565b6102a6610353366004611427565b6106c3565b6102a661077f565b61025960035481565b6101fd6107c5565b6101fd61037f3660046113fb565b6107df565b6102a6610808565b60015461039a9061ffff1681565b60405161ffff9091168152602001610209565b6103b561088b565b60405161020992919061149a565b610259600081565b6102a66103d93660046113c6565b610a70565b61025960025481565b6102a6610afc565b6102a66103fd3660046113fb565b610b42565b6102a66104103660046114f1565b610b67565b610259610c4d565b6102a661042b366004611427565b610c59565b6102a661043e366004611427565b610db2565b61025960008051602061160683398151915281565b60006001600160e01b03198216637965db0b60e01b148061048957506301ffc9a760e01b6001600160e01b03198316145b92915050565b60006002546003546104a1919061152b565b905090565b60006104b181610dd5565b6104bb6005610ddf565b8210156105055760405162461bcd60e51b815260206004820152601360248201527210995b1bddc818dd5c9c995b9d0818dbdd5b9d606a1b60448201526064015b60405180910390fd5b60045460408051918252602082018490527f43f71dfd216eaaf2f75bdb23d66ae4f5b7e2975e422538b68ef11b46b3874098910160405180910390a150600455565b60008281526020819052604090206001015461056281610dd5565b61056c8383610de9565b50505050565b6001600160a01b038116331461059b5760405163334bd91960e11b815260040160405180910390fd5b6105a58282610e7b565b505050565b60006105b581610dd5565b6007805460ff1916905560405133907f5db9ee0a495bf2e6ff9c91a7834c1ba4fdd244a5e8aa4e537bd38aeae4b073aa90600090a250565b6040516370a0823160e01b81526001600160a01b03828116600483015260009182917f000000000000000000000000000000000000000000000000000000000000000016906370a0823190602401602060405180830381865afa158015610658573d6000803e3d6000fd5b505050506040513d601f19601f8201168201806040525081019061067c919061153e565b91508160000361069157506000928392509050565b600154612710906106a69061ffff1684611557565b6106b0919061156e565b9050915091565b60606104a16005610ee6565b6000805160206116068339815191526106db81610dd5565b60075460ff16156106fe5760405162461bcd60e51b81526004016104fc90611590565b610709600583610efa565b6107475760405162461bcd60e51b815260206004820152600f60248201526e139bdd081c185c9d1a58da5c185b9d608a1b60448201526064016104fc565b6040516001600160a01b038316907f1a5e355a9a34d7eac1e439a6c610ba1fa72aa45f7645724ce5187fa19c3bd3fc90600090a25050565b600061078a81610dd5565b6007805460ff1916600117905560405133907f62e78cea01bee320cd4e420270b5ea74000d11b0c9f74754ebdbfc544b05a25890600090a250565b60006002546003546107d7919061152b565b431015905090565b6000918252602082815260408084206001600160a01b0393909316845291905290205460ff1690565b60075460ff161561082b5760405162461bcd60e51b81526004016104fc90611590565b60025460035461083b919061152b565b4310156108815760405162461bcd60e51b8152602060048201526014602482015273125b9d195c9d985b081b9bdd081c995858da195960621b60448201526064016104fc565b610889610f0f565b565b606080600061089a6005610ddf565b90508067ffffffffffffffff8111156108b5576108b56115b0565b6040519080825280602002602001820160405280156108de578160200160208202803683370190505b5092508067ffffffffffffffff8111156108fa576108fa6115b0565b604051908082528060200260200182016040528015610923578160200160208202803683370190505b5060015490925061ffff1660005b82811015610a6957600061094660058361117e565b90508086838151811061095b5761095b6115c6565b6001600160a01b0392831660209182029290920101526040516370a0823160e01b815282821660048201526000917f000000000000000000000000000000000000000000000000000000000000000016906370a0823190602401602060405180830381865afa1580156109d2573d6000803e3d6000fd5b505050506040513d601f19601f820116820180604052508101906109f6919061153e565b905080600003610a25576000868481518110610a1457610a146115c6565b602002602001018181525050610a5f565b612710610a3661ffff861683611557565b610a40919061156e565b868481518110610a5257610a526115c6565b6020026020010181815250505b5050600101610931565b5050509091565b6000610a7b81610dd5565b60008211610aba5760405162461bcd60e51b815260206004820152600c60248201526b0496e74657276616c203d20360a41b60448201526064016104fc565b60025460408051918252602082018490527f92360cc646ba7f4b57ed7392dc9090268d5b45a3fb73eede4ed4b9d760d0a7e3910160405180910390a150600255565b600080516020611606833981519152610b1481610dd5565b60075460ff1615610b375760405162461bcd60e51b81526004016104fc90611590565b610b3f610f0f565b50565b600082815260208190526040902060010154610b5d81610dd5565b61056c8383610e7b565b6000610b7281610dd5565b6127108261ffff161115610bb05760405162461bcd60e51b81526020600482015260056024820152643e3130302560d81b60448201526064016104fc565b60008261ffff1611610bf25760405162461bcd60e51b815260206004820152600b60248201526a050657263656e74203d20360ac1b60448201526064016104fc565b6001546040805161ffff928316815291841660208301527fd91cbbf82addf9d2a6dff4ed0a48849d842d53fcedc3508937b480d1d870acff910160405180910390a1506001805461ffff191661ffff92909216919091179055565b60006104a16005610ddf565b600080516020611606833981519152610c7181610dd5565b60075460ff1615610c945760405162461bcd60e51b81526004016104fc90611590565b6001600160a01b038216610cd95760405162461bcd60e51b815260206004820152600c60248201526b5a65726f206164647265737360a01b60448201526064016104fc565b600454610ce66005610ddf565b10610d335760405162461bcd60e51b815260206004820152601860248201527f4d6178207061727469636970616e74732072656163686564000000000000000060448201526064016104fc565b610d3e60058361118a565b610d7a5760405162461bcd60e51b815260206004820152600d60248201526c105b1c9958591e481859191959609a1b60448201526064016104fc565b6040516001600160a01b038316907f31d3ac54da09405b02d1de0ee0de648de637fbdc111123be0d7fc31f2a544c0b90600090a25050565b6000610dbd81610dd5565b6105a560008051602061160683398151915283610de9565b610b3f813361119f565b6000610489825490565b6000610df583836107df565b610e73576000838152602081815260408083206001600160a01b03861684529091529020805460ff19166001179055610e2b3390565b6001600160a01b0316826001600160a01b0316847f2f8788117e7eff1d82e926ec794901d17c78024a50270940304540a733656f0d60405160405180910390a4506001610489565b506000610489565b6000610e8783836107df565b15610e73576000838152602081815260408083206001600160a01b0386168085529252808320805460ff1916905551339286917ff6391f5c32d9c69d2a47ea670b442974b53935d1edc7fd64eb21e047a839171b9190a4506001610489565b60606000610ef3836111dc565b9392505050565b6000610ef3836001600160a01b038416611238565b6003544311610f605760405162461bcd60e51b815260206004820152601e60248201527f416c7265616479206469737472696275746564207468697320626c6f636b000060448201526064016104fc565b436003556000610f706005610ddf565b60015490915061ffff1660005b82811015611135576000610f9260058361117e565b6040516370a0823160e01b81526001600160a01b0380831660048301529192506000917f000000000000000000000000000000000000000000000000000000000000000016906370a0823190602401602060405180830381865afa158015610ffe573d6000803e3d6000fd5b505050506040513d601f19601f82011682018060405250810190611022919061153e565b90508060000361103357505061112d565b600061271061104661ffff871684611557565b611050919061156e565b90508015611129576040516340c10f1960e01b81526001600160a01b038481166004830152602482018390527f000000000000000000000000000000000000000000000000000000000000000016906340c10f1990604401600060405180830381600087803b1580156110c257600080fd5b505af11580156110d6573d6000803e3d6000fd5b5050604080518581526020810185905261ffff89168183015290516001600160a01b03871693507eda9a0b51b3fc99fa1e810e60ec1fbce431c200276d86ed09daca93865a7ad592509081900360600190a25b5050505b600101610f7d565b506040805143815261ffff831660208201529081018390527f4a746de4277adda7cb39cdac32464b739a41c99ee6559b8d4024ea6191a2059a9060600160405180910390a15050565b6000610ef3838361132b565b6000610ef3836001600160a01b038416611355565b6111a982826107df565b6111d85760405163e2517d3f60e01b81526001600160a01b0382166004820152602481018390526044016104fc565b5050565b60608160000180548060200260200160405190810160405280929190818152602001828054801561122c57602002820191906000526020600020905b815481526020019060010190808311611218575b50505050509050919050565b6000818152600183016020526040812054801561132157600061125c6001836115dc565b8554909150600090611270906001906115dc565b90508082146112d5576000866000018281548110611290576112906115c6565b90600052602060002001549050808760000184815481106112b3576112b36115c6565b6000918252602080832090910192909255918252600188019052604090208390555b85548690806112e6576112e66115ef565b600190038181906000526020600020016000905590558560010160008681526020019081526020016000206000905560019350505050610489565b6000915050610489565b6000826000018281548110611342576113426115c6565b9060005260206000200154905092915050565b6000818152600183016020526040812054610e7357508154600181810184556000848152602080822090930184905584548482528286019093526040902091909155610489565b6000602082840312156113ae57600080fd5b81356001600160e01b031981168114610ef357600080fd5b6000602082840312156113d857600080fd5b5035919050565b80356001600160a01b03811681146113f657600080fd5b919050565b6000806040838503121561140e57600080fd5b8235915061141e602084016113df565b90509250929050565b60006020828403121561143957600080fd5b610ef3826113df565b60008151808452602080850194506020840160005b8381101561147c5781516001600160a01b031687529582019590820190600101611457565b509495945050505050565b602081526000610ef36020830184611442565b6040815260006114ad6040830185611442565b82810360208481019190915284518083528582019282019060005b818110156114e4578451835293830193918301916001016114c8565b5090979650505050505050565b60006020828403121561150357600080fd5b813561ffff81168114610ef357600080fd5b634e487b7160e01b600052601160045260246000fd5b8082018082111561048957610489611515565b60006020828403121561155057600080fd5b5051919050565b808202811582820484141761048957610489611515565b60008261158b57634e487b7160e01b600052601260045260246000fd5b500490565b60208082526006908201526514185d5cd95960d21b604082015260600190565b634e487b7160e01b600052604160045260246000fd5b634e487b7160e01b600052603260045260246000fd5b8181038181111561048957610489611515565b634e487b7160e01b600052603160045260246000fdfe97667070c54ef182b0f5858b034beac1b6f3089aa2d3188bb1e8929f4fa9b929a26469706673582212204333be560ef3d4b7da8a52d40d1d5647d4a0652ad7dbb29c2fe98c54d29f4b6364736f6c63430008180033","opcodes":"PUSH1 0xC0 PUSH1 0x40 MSTORE CALLVALUE DUP1 ISZERO PUSH3 0x11 JUMPI PUSH1 0x0 DUP1 REVERT JUMPDEST POP PUSH1 0x40 MLOAD PUSH3 0x191A CODESIZE SUB DUP1 PUSH3 0x191A DUP4 CODECOPY DUP2 ADD PUSH1 0x40 DUP2 SWAP1 MSTORE PUSH3 0x34 SWAP2 PUSH3 0x223 JUMP JUMPDEST PUSH1 0x1 PUSH1 0x1 PUSH1 0xA0 SHL SUB DUP5 AND ISZERO DUP1 ISZERO SWAP1 PUSH3 0x55 JUMPI POP PUSH1 0x1 PUSH1 0x1 PUSH1 0xA0 SHL SUB DUP4 AND ISZERO ISZERO JUMPDEST PUSH3 0x96 JUMPI PUSH1 0x40 MLOAD PUSH3 0x461BCD PUSH1 0xE5 SHL DUP2 MSTORE PUSH1 0x20 PUSH1 0x4 DUP3 ADD MSTORE PUSH1 0xC PUSH1 0x24 DUP3 ADD MSTORE PUSH12 0x5A65726F2061646472657373 PUSH1 0xA0 SHL PUSH1 0x44 DUP3 ADD MSTORE PUSH1 0x64 ADD JUMPDEST PUSH1 0x40 MLOAD DUP1 SWAP2 SUB SWAP1 REVERT JUMPDEST PUSH2 0x2710 DUP3 PUSH2 0xFFFF AND GT ISZERO PUSH3 0xDF JUMPI PUSH1 0x40 MLOAD PUSH3 0x461BCD PUSH1 0xE5 SHL DUP2 MSTORE PUSH1 0x20 PUSH1 0x4 DUP3 ADD MSTORE PUSH1 0xE PUSH1 0x24 DUP3 ADD MSTORE PUSH14 0x50657263656E74203E2031303025 PUSH1 0x90 SHL PUSH1 0x44 DUP3 ADD MSTORE PUSH1 0x64 ADD PUSH3 0x8D JUMP JUMPDEST PUSH1 0x1 PUSH1 0x1 PUSH1 0xA0 SHL SUB DUP5 DUP2 AND PUSH1 0x80 MSTORE DUP4 AND PUSH1 0xA0 MSTORE PUSH1 0x1 DUP1 SLOAD PUSH2 0xFFFF NOT AND PUSH2 0xFFFF DUP5 AND OR SWAP1 SSTORE PUSH1 0x2 DUP2 SWAP1 SSTORE NUMBER PUSH1 0x3 SSTORE PUSH2 0x3E8 PUSH1 0x4 SSTORE PUSH3 0x11F PUSH1 0x0 CALLER PUSH3 0x157 JUMP JUMPDEST POP PUSH3 0x14C PUSH32 0x97667070C54EF182B0F5858B034BEAC1B6F3089AA2D3188BB1E8929F4FA9B929 CALLER PUSH3 0x157 JUMP JUMPDEST POP POP POP POP POP PUSH3 0x27D JUMP JUMPDEST PUSH1 0x0 DUP3 DUP2 MSTORE PUSH1 0x20 DUP2 DUP2 MSTORE PUSH1 0x40 DUP1 DUP4 KECCAK256 PUSH1 0x1 PUSH1 0x1 PUSH1 0xA0 SHL SUB DUP6 AND DUP5 MSTORE SWAP1 SWAP2 MSTORE DUP2 KECCAK256 SLOAD PUSH1 0xFF AND PUSH3 0x1FC JUMPI PUSH1 0x0 DUP4 DUP2 MSTORE PUSH1 0x20 DUP2 DUP2 MSTORE PUSH1 0x40 DUP1 DUP4 KECCAK256 PUSH1 0x1 PUSH1 0x1 PUSH1 0xA0 SHL SUB DUP7 AND DUP5 MSTORE SWAP1 SWAP2 MSTORE SWAP1 KECCAK256 DUP1 SLOAD PUSH1 0xFF NOT AND PUSH1 0x1 OR SWAP1 SSTORE PUSH3 0x1B3 CALLER SWAP1 JUMP JUMPDEST PUSH1 0x1 PUSH1 0x1 PUSH1 0xA0 SHL SUB AND DUP3 PUSH1 0x1 PUSH1 0x1 PUSH1 0xA0 SHL SUB AND DUP5 PUSH32 0x2F8788117E7EFF1D82E926EC794901D17C78024A50270940304540A733656F0D PUSH1 0x40 MLOAD PUSH1 0x40 MLOAD DUP1 SWAP2 SUB SWAP1 LOG4 POP PUSH1 0x1 PUSH3 0x200 JUMP JUMPDEST POP PUSH1 0x0 JUMPDEST SWAP3 SWAP2 POP POP JUMP JUMPDEST DUP1 MLOAD PUSH1 0x1 PUSH1 0x1 PUSH1 0xA0 SHL SUB DUP2 AND DUP2 EQ PUSH3 0x21E JUMPI PUSH1 0x0 DUP1 REVERT JUMPDEST SWAP2 SWAP1 POP JUMP JUMPDEST PUSH1 0x0 DUP1 PUSH1 0x0 DUP1 PUSH1 0x80 DUP6 DUP8 SUB SLT ISZERO PUSH3 0x23A JUMPI PUSH1 0x0 DUP1 REVERT JUMPDEST PUSH3 0x245 DUP6 PUSH3 0x206 JUMP JUMPDEST SWAP4 POP PUSH3 0x255 PUSH1 0x20 DUP7 ADD PUSH3 0x206 JUMP JUMPDEST SWAP3 POP PUSH1 0x40 DUP6 ADD MLOAD PUSH2 0xFFFF DUP2 AND DUP2 EQ PUSH3 0x26D JUMPI PUSH1 0x0 DUP1 REVERT JUMPDEST PUSH1 0x60 SWAP6 SWAP1 SWAP6 ADD MLOAD SWAP4 SWAP7 SWAP3 SWAP6 POP POP POP JUMP JUMPDEST PUSH1 0x80 MLOAD PUSH1 0xA0 MLOAD PUSH2 0x165B PUSH3 0x2BF PUSH1 0x0 CODECOPY PUSH1 0x0 DUP2 DUP2 PUSH2 0x323 ADD MSTORE PUSH2 0x107E ADD MSTORE PUSH1 0x0 DUP2 DUP2 PUSH2 0x217 ADD MSTORE DUP2 DUP2 PUSH2 0x611 ADD MSTORE DUP2 DUP2 PUSH2 0x98B ADD MSTORE PUSH2 0xFB7 ADD MSTORE PUSH2 0x165B PUSH1 0x0 RETURN INVALID PUSH1 0x80 PUSH1 0x40 MSTORE CALLVALUE DUP1 ISZERO PUSH2 0x10 JUMPI PUSH1 0x0 DUP1 REVERT JUMPDEST POP PUSH1 0x4 CALLDATASIZE LT PUSH2 0x1E5 JUMPI PUSH1 0x0 CALLDATALOAD PUSH1 0xE0 SHR DUP1 PUSH4 0x852E546E GT PUSH2 0x10F JUMPI DUP1 PUSH4 0xC4C22E98 GT PUSH2 0xA2 JUMPI DUP1 PUSH4 0xDD60C898 GT PUSH2 0x71 JUMPI DUP1 PUSH4 0xDD60C898 EQ PUSH2 0x415 JUMPI DUP1 PUSH4 0xDFAFE10F EQ PUSH2 0x41D JUMPI DUP1 PUSH4 0xE348DA13 EQ PUSH2 0x430 JUMPI DUP1 PUSH4 0xF5B541A6 EQ PUSH2 0x443 JUMPI PUSH1 0x0 DUP1 REVERT JUMPDEST DUP1 PUSH4 0xC4C22E98 EQ PUSH2 0x3DE JUMPI DUP1 PUSH4 0xCCE8F14C EQ PUSH2 0x3E7 JUMPI DUP1 PUSH4 0xD547741F EQ PUSH2 0x3EF JUMPI DUP1 PUSH4 0xDC47F4BF EQ PUSH2 0x402 JUMPI PUSH1 0x0 DUP1 REVERT JUMPDEST DUP1 PUSH4 0x9B9FB285 GT PUSH2 0xDE JUMPI DUP1 PUSH4 0x9B9FB285 EQ PUSH2 0x38C JUMPI DUP1 PUSH4 0xA0A53CEB EQ PUSH2 0x3AD JUMPI DUP1 PUSH4 0xA217FDDF EQ PUSH2 0x3C3 JUMPI DUP1 PUSH4 0xBA6943F6 EQ PUSH2 0x3CB JUMPI PUSH1 0x0 DUP1 REVERT JUMPDEST DUP1 PUSH4 0x852E546E EQ PUSH2 0x360 JUMPI DUP1 PUSH4 0x87729FC8 EQ PUSH2 0x369 JUMPI DUP1 PUSH4 0x91D14854 EQ PUSH2 0x371 JUMPI DUP1 PUSH4 0x9B742F07 EQ PUSH2 0x384 JUMPI PUSH1 0x0 DUP1 REVERT JUMPDEST DUP1 PUSH4 0x36568ABE GT PUSH2 0x187 JUMPI DUP1 PUSH4 0x5C975ABB GT PUSH2 0x156 JUMPI DUP1 PUSH4 0x5C975ABB EQ PUSH2 0x313 JUMPI DUP1 PUSH4 0x5F64B55B EQ PUSH2 0x31E JUMPI DUP1 PUSH4 0x668A2001 EQ PUSH2 0x345 JUMPI DUP1 PUSH4 0x8456CB59 EQ PUSH2 0x358 JUMPI PUSH1 0x0 DUP1 REVERT JUMPDEST DUP1 PUSH4 0x36568ABE EQ PUSH2 0x2BB JUMPI DUP1 PUSH4 0x3F4BA83A EQ PUSH2 0x2CE JUMPI DUP1 PUSH4 0x590BC9B5 EQ PUSH2 0x2D6 JUMPI DUP1 PUSH4 0x5AA68AC0 EQ PUSH2 0x2FE JUMPI PUSH1 0x0 DUP1 REVERT JUMPDEST DUP1 PUSH4 0x248A9CA3 GT PUSH2 0x1C3 JUMPI DUP1 PUSH4 0x248A9CA3 EQ PUSH2 0x267 JUMPI DUP1 PUSH4 0x24924BF7 EQ PUSH2 0x28A JUMPI DUP1 PUSH4 0x2BF7299B EQ PUSH2 0x293 JUMPI DUP1 PUSH4 0x2F2FF15D EQ PUSH2 0x2A8 JUMPI PUSH1 0x0 DUP1 REVERT JUMPDEST DUP1 PUSH4 0x1FFC9A7 EQ PUSH2 0x1EA JUMPI DUP1 PUSH4 0xFC63D10 EQ PUSH2 0x212 JUMPI DUP1 PUSH4 0x16CFDBED EQ PUSH2 0x251 JUMPI JUMPDEST PUSH1 0x0 DUP1 REVERT JUMPDEST PUSH2 0x1FD PUSH2 0x1F8 CALLDATASIZE PUSH1 0x4 PUSH2 0x139C JUMP JUMPDEST PUSH2 0x458 JUMP JUMPDEST PUSH1 0x40 MLOAD SWAP1 ISZERO ISZERO DUP2 MSTORE PUSH1 0x20 ADD JUMPDEST PUSH1 0x40 MLOAD DUP1 SWAP2 SUB SWAP1 RETURN JUMPDEST PUSH2 0x239 PUSH32 0x0 DUP2 JUMP JUMPDEST PUSH1 0x40 MLOAD PUSH1 0x1 PUSH1 0x1 PUSH1 0xA0 SHL SUB SWAP1 SWAP2 AND DUP2 MSTORE PUSH1 0x20 ADD PUSH2 0x209 JUMP JUMPDEST PUSH2 0x259 PUSH2 0x48F JUMP JUMPDEST PUSH1 0x40 MLOAD SWAP1 DUP2 MSTORE PUSH1 0x20 ADD PUSH2 0x209 JUMP JUMPDEST PUSH2 0x259 PUSH2 0x275 CALLDATASIZE PUSH1 0x4 PUSH2 0x13C6 JUMP JUMPDEST PUSH1 0x0 SWAP1 DUP2 MSTORE PUSH1 0x20 DUP2 SWAP1 MSTORE PUSH1 0x40 SWAP1 KECCAK256 PUSH1 0x1 ADD SLOAD SWAP1 JUMP JUMPDEST PUSH2 0x259 PUSH1 0x4 SLOAD DUP2 JUMP JUMPDEST PUSH2 0x2A6 PUSH2 0x2A1 CALLDATASIZE PUSH1 0x4 PUSH2 0x13C6 JUMP JUMPDEST PUSH2 0x4A6 JUMP JUMPDEST STOP JUMPDEST PUSH2 0x2A6 PUSH2 0x2B6 CALLDATASIZE PUSH1 0x4 PUSH2 0x13FB JUMP JUMPDEST PUSH2 0x547 JUMP JUMPDEST PUSH2 0x2A6 PUSH2 0x2C9 CALLDATASIZE PUSH1 0x4 PUSH2 0x13FB JUMP JUMPDEST PUSH2 0x572 JUMP JUMPDEST PUSH2 0x2A6 PUSH2 0x5AA JUMP JUMPDEST PUSH2 0x2E9 PUSH2 0x2E4 CALLDATASIZE PUSH1 0x4 PUSH2 0x1427 JUMP JUMPDEST PUSH2 0x5ED JUMP JUMPDEST PUSH1 0x40 DUP1 MLOAD SWAP3 DUP4 MSTORE PUSH1 0x20 DUP4 ADD SWAP2 SWAP1 SWAP2 MSTORE ADD PUSH2 0x209 JUMP JUMPDEST PUSH2 0x306 PUSH2 0x6B7 JUMP JUMPDEST PUSH1 0x40 MLOAD PUSH2 0x209 SWAP2 SWAP1 PUSH2 0x1487 JUMP JUMPDEST PUSH1 0x7 SLOAD PUSH1 0xFF AND PUSH2 0x1FD JUMP JUMPDEST PUSH2 0x239 PUSH32 0x0 DUP2 JUMP JUMPDEST PUSH2 0x2A6 PUSH2 0x353 CALLDATASIZE PUSH1 0x4 PUSH2 0x1427 JUMP JUMPDEST PUSH2 0x6C3 JUMP JUMPDEST PUSH2 0x2A6 PUSH2 0x77F JUMP JUMPDEST PUSH2 0x259 PUSH1 0x3 SLOAD DUP2 JUMP JUMPDEST PUSH2 0x1FD PUSH2 0x7C5 JUMP JUMPDEST PUSH2 0x1FD PUSH2 0x37F CALLDATASIZE PUSH1 0x4 PUSH2 0x13FB JUMP JUMPDEST PUSH2 0x7DF JUMP JUMPDEST PUSH2 0x2A6 PUSH2 0x808 JUMP JUMPDEST PUSH1 0x1 SLOAD PUSH2 0x39A SWAP1 PUSH2 0xFFFF AND DUP2 JUMP JUMPDEST PUSH1 0x40 MLOAD PUSH2 0xFFFF SWAP1 SWAP2 AND DUP2 MSTORE PUSH1 0x20 ADD PUSH2 0x209 JUMP JUMPDEST PUSH2 0x3B5 PUSH2 0x88B JUMP JUMPDEST PUSH1 0x40 MLOAD PUSH2 0x209 SWAP3 SWAP2 SWAP1 PUSH2 0x149A JUMP JUMPDEST PUSH2 0x259 PUSH1 0x0 DUP2 JUMP JUMPDEST PUSH2 0x2A6 PUSH2 0x3D9 CALLDATASIZE PUSH1 0x4 PUSH2 0x13C6 JUMP JUMPDEST PUSH2 0xA70 JUMP JUMPDEST PUSH2 0x259 PUSH1 0x2 SLOAD DUP2 JUMP JUMPDEST PUSH2 0x2A6 PUSH2 0xAFC JUMP JUMPDEST PUSH2 0x2A6 PUSH2 0x3FD CALLDATASIZE PUSH1 0x4 PUSH2 0x13FB JUMP JUMPDEST PUSH2 0xB42 JUMP JUMPDEST PUSH2 0x2A6 PUSH2 0x410 CALLDATASIZE PUSH1 0x4 PUSH2 0x14F1 JUMP JUMPDEST PUSH2 0xB67 JUMP JUMPDEST PUSH2 0x259 PUSH2 0xC4D JUMP JUMPDEST PUSH2 0x2A6 PUSH2 0x42B CALLDATASIZE PUSH1 0x4 PUSH2 0x1427 JUMP JUMPDEST PUSH2 0xC59 JUMP JUMPDEST PUSH2 0x2A6 PUSH2 0x43E CALLDATASIZE PUSH1 0x4 PUSH2 0x1427 JUMP JUMPDEST PUSH2 0xDB2 JUMP JUMPDEST PUSH2 0x259 PUSH1 0x0 DUP1 MLOAD PUSH1 0x20 PUSH2 0x1606 DUP4 CODECOPY DUP2 MLOAD SWAP2 MSTORE DUP2 JUMP JUMPDEST PUSH1 0x0 PUSH1 0x1 PUSH1 0x1 PUSH1 0xE0 SHL SUB NOT DUP3 AND PUSH4 0x7965DB0B PUSH1 0xE0 SHL EQ DUP1 PUSH2 0x489 JUMPI POP PUSH4 0x1FFC9A7 PUSH1 0xE0 SHL PUSH1 0x1 PUSH1 0x1 PUSH1 0xE0 SHL SUB NOT DUP4 AND EQ JUMPDEST SWAP3 SWAP2 POP POP JUMP JUMPDEST PUSH1 0x0 PUSH1 0x2 SLOAD PUSH1 0x3 SLOAD PUSH2 0x4A1 SWAP2 SWAP1 PUSH2 0x152B JUMP JUMPDEST SWAP1 POP SWAP1 JUMP JUMPDEST PUSH1 0x0 PUSH2 0x4B1 DUP2 PUSH2 0xDD5 JUMP JUMPDEST PUSH2 0x4BB PUSH1 0x5 PUSH2 0xDDF JUMP JUMPDEST DUP3 LT ISZERO PUSH2 0x505 JUMPI PUSH1 0x40 MLOAD PUSH3 0x461BCD PUSH1 0xE5 SHL DUP2 MSTORE PUSH1 0x20 PUSH1 0x4 DUP3 ADD MSTORE PUSH1 0x13 PUSH1 0x24 DUP3 ADD MSTORE PUSH19 0x10995B1BDDC818DD5C9C995B9D0818DBDD5B9D PUSH1 0x6A SHL PUSH1 0x44 DUP3 ADD MSTORE PUSH1 0x64 ADD JUMPDEST PUSH1 0x40 MLOAD DUP1 SWAP2 SUB SWAP1 REVERT JUMPDEST PUSH1 0x4 SLOAD PUSH1 0x40 DUP1 MLOAD SWAP2 DUP3 MSTORE PUSH1 0x20 DUP3 ADD DUP5 SWAP1 MSTORE PUSH32 0x43F71DFD216EAAF2F75BDB23D66AE4F5B7E2975E422538B68EF11B46B3874098 SWAP2 ADD PUSH1 0x40 MLOAD DUP1 SWAP2 SUB SWAP1 LOG1 POP PUSH1 0x4 SSTORE JUMP JUMPDEST PUSH1 0x0 DUP3 DUP2 MSTORE PUSH1 0x20 DUP2 SWAP1 MSTORE PUSH1 0x40 SWAP1 KECCAK256 PUSH1 0x1 ADD SLOAD PUSH2 0x562 DUP2 PUSH2 0xDD5 JUMP JUMPDEST PUSH2 0x56C DUP4 DUP4 PUSH2 0xDE9 JUMP JUMPDEST POP POP POP POP JUMP JUMPDEST PUSH1 0x1 PUSH1 0x1 PUSH1 0xA0 SHL SUB DUP2 AND CALLER EQ PUSH2 0x59B JUMPI PUSH1 0x40 MLOAD PUSH4 0x334BD919 PUSH1 0xE1 SHL DUP2 MSTORE PUSH1 0x4 ADD PUSH1 0x40 MLOAD DUP1 SWAP2 SUB SWAP1 REVERT JUMPDEST PUSH2 0x5A5 DUP3 DUP3 PUSH2 0xE7B JUMP JUMPDEST POP POP POP JUMP JUMPDEST PUSH1 0x0 PUSH2 0x5B5 DUP2 PUSH2 0xDD5 JUMP JUMPDEST PUSH1 0x7 DUP1 SLOAD PUSH1 0xFF NOT AND SWAP1 SSTORE PUSH1 0x40 MLOAD CALLER SWAP1 PUSH32 0x5DB9EE0A495BF2E6FF9C91A7834C1BA4FDD244A5E8AA4E537BD38AEAE4B073AA SWAP1 PUSH1 0x0 SWAP1 LOG2 POP JUMP JUMPDEST PUSH1 0x40 MLOAD PUSH4 0x70A08231 PUSH1 0xE0 SHL DUP2 MSTORE PUSH1 0x1 PUSH1 0x1 PUSH1 0xA0 SHL SUB DUP3 DUP2 AND PUSH1 0x4 DUP4 ADD MSTORE PUSH1 0x0 SWAP2 DUP3 SWAP2 PUSH32 0x0 AND SWAP1 PUSH4 0x70A08231 SWAP1 PUSH1 0x24 ADD PUSH1 0x20 PUSH1 0x40 MLOAD DUP1 DUP4 SUB DUP2 DUP7 GAS STATICCALL ISZERO DUP1 ISZERO PUSH2 0x658 JUMPI RETURNDATASIZE PUSH1 0x0 DUP1 RETURNDATACOPY RETURNDATASIZE PUSH1 0x0 REVERT JUMPDEST POP POP POP POP PUSH1 0x40 MLOAD RETURNDATASIZE PUSH1 0x1F NOT PUSH1 0x1F DUP3 ADD AND DUP3 ADD DUP1 PUSH1 0x40 MSTORE POP DUP2 ADD SWAP1 PUSH2 0x67C SWAP2 SWAP1 PUSH2 0x153E JUMP JUMPDEST SWAP2 POP DUP2 PUSH1 0x0 SUB PUSH2 0x691 JUMPI POP PUSH1 0x0 SWAP3 DUP4 SWAP3 POP SWAP1 POP JUMP JUMPDEST PUSH1 0x1 SLOAD PUSH2 0x2710 SWAP1 PUSH2 0x6A6 SWAP1 PUSH2 0xFFFF AND DUP5 PUSH2 0x1557 JUMP JUMPDEST PUSH2 0x6B0 SWAP2 SWAP1 PUSH2 0x156E JUMP JUMPDEST SWAP1 POP SWAP2 POP SWAP2 JUMP JUMPDEST PUSH1 0x60 PUSH2 0x4A1 PUSH1 0x5 PUSH2 0xEE6 JUMP JUMPDEST PUSH1 0x0 DUP1 MLOAD PUSH1 0x20 PUSH2 0x1606 DUP4 CODECOPY DUP2 MLOAD SWAP2 MSTORE PUSH2 0x6DB DUP2 PUSH2 0xDD5 JUMP JUMPDEST PUSH1 0x7 SLOAD PUSH1 0xFF AND ISZERO PUSH2 0x6FE JUMPI PUSH1 0x40 MLOAD PUSH3 0x461BCD PUSH1 0xE5 SHL DUP2 MSTORE PUSH1 0x4 ADD PUSH2 0x4FC SWAP1 PUSH2 0x1590 JUMP JUMPDEST PUSH2 0x709 PUSH1 0x5 DUP4 PUSH2 0xEFA JUMP JUMPDEST PUSH2 0x747 JUMPI PUSH1 0x40 MLOAD PUSH3 0x461BCD PUSH1 0xE5 SHL DUP2 MSTORE PUSH1 0x20 PUSH1 0x4 DUP3 ADD MSTORE PUSH1 0xF PUSH1 0x24 DUP3 ADD MSTORE PUSH15 0x139BDD081C185C9D1A58DA5C185B9D PUSH1 0x8A SHL PUSH1 0x44 DUP3 ADD MSTORE PUSH1 0x64 ADD PUSH2 0x4FC JUMP JUMPDEST PUSH1 0x40 MLOAD PUSH1 0x1 PUSH1 0x1 PUSH1 0xA0 SHL SUB DUP4 AND SWAP1 PUSH32 0x1A5E355A9A34D7EAC1E439A6C610BA1FA72AA45F7645724CE5187FA19C3BD3FC SWAP1 PUSH1 0x0 SWAP1 LOG2 POP POP JUMP JUMPDEST PUSH1 0x0 PUSH2 0x78A DUP2 PUSH2 0xDD5 JUMP JUMPDEST PUSH1 0x7 DUP1 SLOAD PUSH1 0xFF NOT AND PUSH1 0x1 OR SWAP1 SSTORE PUSH1 0x40 MLOAD CALLER SWAP1 PUSH32 0x62E78CEA01BEE320CD4E420270B5EA74000D11B0C9F74754EBDBFC544B05A258 SWAP1 PUSH1 0x0 SWAP1 LOG2 POP JUMP JUMPDEST PUSH1 0x0 PUSH1 0x2 SLOAD PUSH1 0x3 SLOAD PUSH2 0x7D7 SWAP2 SWAP1 PUSH2 0x152B JUMP JUMPDEST NUMBER LT ISZERO SWAP1 POP SWAP1 JUMP JUMPDEST PUSH1 0x0 SWAP2 DUP3 MSTORE PUSH1 0x20 DUP3 DUP2 MSTORE PUSH1 0x40 DUP1 DUP5 KECCAK256 PUSH1 0x1 PUSH1 0x1 PUSH1 0xA0 SHL SUB SWAP4 SWAP1 SWAP4 AND DUP5 MSTORE SWAP2 SWAP1 MSTORE SWAP1 KECCAK256 SLOAD PUSH1 0xFF AND SWAP1 JUMP JUMPDEST PUSH1 0x7 SLOAD PUSH1 0xFF AND ISZERO PUSH2 0x82B JUMPI PUSH1 0x40 MLOAD PUSH3 0x461BCD PUSH1 0xE5 SHL DUP2 MSTORE PUSH1 0x4 ADD PUSH2 0x4FC SWAP1 PUSH2 0x1590 JUMP JUMPDEST PUSH1 0x2 SLOAD PUSH1 0x3 SLOAD PUSH2 0x83B SWAP2 SWAP1 PUSH2 0x152B JUMP JUMPDEST NUMBER LT ISZERO PUSH2 0x881 JUMPI PUSH1 0x40 MLOAD PUSH3 0x461BCD PUSH1 0xE5 SHL DUP2 MSTORE PUSH1 0x20 PUSH1 0x4 DUP3 ADD MSTORE PUSH1 0x14 PUSH1 0x24 DUP3 ADD MSTORE PUSH20 0x125B9D195C9D985B081B9BDD081C995858DA1959 PUSH1 0x62 SHL PUSH1 0x44 DUP3 ADD MSTORE PUSH1 0x64 ADD PUSH2 0x4FC JUMP JUMPDEST PUSH2 0x889 PUSH2 0xF0F JUMP JUMPDEST JUMP JUMPDEST PUSH1 0x60 DUP1 PUSH1 0x0 PUSH2 0x89A PUSH1 0x5 PUSH2 0xDDF JUMP JUMPDEST SWAP1 POP DUP1 PUSH8 0xFFFFFFFFFFFFFFFF DUP2 GT ISZERO PUSH2 0x8B5 JUMPI PUSH2 0x8B5 PUSH2 0x15B0 JUMP JUMPDEST PUSH1 0x40 MLOAD SWAP1 DUP1 DUP3 MSTORE DUP1 PUSH1 0x20 MUL PUSH1 0x20 ADD DUP3 ADD PUSH1 0x40 MSTORE DUP1 ISZERO PUSH2 0x8DE JUMPI DUP2 PUSH1 0x20 ADD PUSH1 0x20 DUP3 MUL DUP1 CALLDATASIZE DUP4 CALLDATACOPY ADD SWAP1 POP JUMPDEST POP SWAP3 POP DUP1 PUSH8 0xFFFFFFFFFFFFFFFF DUP2 GT ISZERO PUSH2 0x8FA JUMPI PUSH2 0x8FA PUSH2 0x15B0 JUMP JUMPDEST PUSH1 0x40 MLOAD SWAP1 DUP1 DUP3 MSTORE DUP1 PUSH1 0x20 MUL PUSH1 0x20 ADD DUP3 ADD PUSH1 0x40 MSTORE DUP1 ISZERO PUSH2 0x923 JUMPI DUP2 PUSH1 0x20 ADD PUSH1 0x20 DUP3 MUL DUP1 CALLDATASIZE DUP4 CALLDATACOPY ADD SWAP1 POP JUMPDEST POP PUSH1 0x1 SLOAD SWAP1 SWAP3 POP PUSH2 0xFFFF AND PUSH1 0x0 JUMPDEST DUP3 DUP2 LT ISZERO PUSH2 0xA69 JUMPI PUSH1 0x0 PUSH2 0x946 PUSH1 0x5 DUP4 PUSH2 0x117E JUMP JUMPDEST SWAP1 POP DUP1 DUP7 DUP4 DUP2 MLOAD DUP2 LT PUSH2 0x95B JUMPI PUSH2 0x95B PUSH2 0x15C6 JUMP JUMPDEST PUSH1 0x1 PUSH1 0x1 PUSH1 0xA0 SHL SUB SWAP3 DUP4 AND PUSH1 0x20 SWAP2 DUP3 MUL SWAP3 SWAP1 SWAP3 ADD ADD MSTORE PUSH1 0x40 MLOAD PUSH4 0x70A08231 PUSH1 0xE0 SHL DUP2 MSTORE DUP3 DUP3 AND PUSH1 0x4 DUP3 ADD MSTORE PUSH1 0x0 SWAP2 PUSH32 0x0 AND SWAP1 PUSH4 0x70A08231 SWAP1 PUSH1 0x24 ADD PUSH1 0x20 PUSH1 0x40 MLOAD DUP1 DUP4 SUB DUP2 DUP7 GAS STATICCALL ISZERO DUP1 ISZERO PUSH2 0x9D2 JUMPI RETURNDATASIZE PUSH1 0x0 DUP1 RETURNDATACOPY RETURNDATASIZE PUSH1 0x0 REVERT JUMPDEST POP POP POP POP PUSH1 0x40 MLOAD RETURNDATASIZE PUSH1 0x1F NOT PUSH1 0x1F DUP3 ADD AND DUP3 ADD DUP1 PUSH1 0x40 MSTORE POP DUP2 ADD SWAP1 PUSH2 0x9F6 SWAP2 SWAP1 PUSH2 0x153E JUMP JUMPDEST SWAP1 POP DUP1 PUSH1 0x0 SUB PUSH2 0xA25 JUMPI PUSH1 0x0 DUP7 DUP5 DUP2 MLOAD DUP2 LT PUSH2 0xA14 JUMPI PUSH2 0xA14 PUSH2 0x15C6 JUMP JUMPDEST PUSH1 0x20 MUL PUSH1 0x20 ADD ADD DUP2 DUP2 MSTORE POP POP PUSH2 0xA5F JUMP JUMPDEST PUSH2 0x2710 PUSH2 0xA36 PUSH2 0xFFFF DUP7 AND DUP4 PUSH2 0x1557 JUMP JUMPDEST PUSH2 0xA40 SWAP2 SWAP1 PUSH2 0x156E JUMP JUMPDEST DUP7 DUP5 DUP2 MLOAD DUP2 LT PUSH2 0xA52 JUMPI PUSH2 0xA52 PUSH2 0x15C6 JUMP JUMPDEST PUSH1 0x20 MUL PUSH1 0x20 ADD ADD DUP2 DUP2 MSTORE POP POP JUMPDEST POP POP PUSH1 0x1 ADD PUSH2 0x931 JUMP JUMPDEST POP POP POP SWAP1 SWAP2 JUMP JUMPDEST PUSH1 0x0 PUSH2 0xA7B DUP2 PUSH2 0xDD5 JUMP JUMPDEST PUSH1 0x0 DUP3 GT PUSH2 0xABA JUMPI PUSH1 0x40 MLOAD PUSH3 0x461BCD PUSH1 0xE5 SHL DUP2 MSTORE PUSH1 0x20 PUSH1 0x4 DUP3 ADD MSTORE PUSH1 0xC PUSH1 0x24 DUP3 ADD MSTORE PUSH12 0x496E74657276616C203D203 PUSH1 0xA4 SHL PUSH1 0x44 DUP3 ADD MSTORE PUSH1 0x64 ADD PUSH2 0x4FC JUMP JUMPDEST PUSH1 0x2 SLOAD PUSH1 0x40 DUP1 MLOAD SWAP2 DUP3 MSTORE PUSH1 0x20 DUP3 ADD DUP5 SWAP1 MSTORE PUSH32 0x92360CC646BA7F4B57ED7392DC9090268D5B45A3FB73EEDE4ED4B9D760D0A7E3 SWAP2 ADD PUSH1 0x40 MLOAD DUP1 SWAP2 SUB SWAP1 LOG1 POP PUSH1 0x2 SSTORE JUMP JUMPDEST PUSH1 0x0 DUP1 MLOAD PUSH1 0x20 PUSH2 0x1606 DUP4 CODECOPY DUP2 MLOAD SWAP2 MSTORE PUSH2 0xB14 DUP2 PUSH2 0xDD5 JUMP JUMPDEST PUSH1 0x7 SLOAD PUSH1 0xFF AND ISZERO PUSH2 0xB37 JUMPI PUSH1 0x40 MLOAD PUSH3 0x461BCD PUSH1 0xE5 SHL DUP2 MSTORE PUSH1 0x4 ADD PUSH2 0x4FC SWAP1 PUSH2 0x1590 JUMP JUMPDEST PUSH2 0xB3F PUSH2 0xF0F JUMP JUMPDEST POP JUMP JUMPDEST PUSH1 0x0 DUP3 DUP2 MSTORE PUSH1 0x20 DUP2 SWAP1 MSTORE PUSH1 0x40 SWAP1 KECCAK256 PUSH1 0x1 ADD SLOAD PUSH2 0xB5D DUP2 PUSH2 0xDD5 JUMP JUMPDEST PUSH2 0x56C DUP4 DUP4 PUSH2 0xE7B JUMP JUMPDEST PUSH1 0x0 PUSH2 0xB72 DUP2 PUSH2 0xDD5 JUMP JUMPDEST PUSH2 0x2710 DUP3 PUSH2 0xFFFF AND GT ISZERO PUSH2 0xBB0 JUMPI PUSH1 0x40 MLOAD PUSH3 0x461BCD PUSH1 0xE5 SHL DUP2 MSTORE PUSH1 0x20 PUSH1 0x4 DUP3 ADD MSTORE PUSH1 0x5 PUSH1 0x24 DUP3 ADD MSTORE PUSH5 0x3E31303025 PUSH1 0xD8 SHL PUSH1 0x44 DUP3 ADD MSTORE PUSH1 0x64 ADD PUSH2 0x4FC JUMP JUMPDEST PUSH1 0x0 DUP3 PUSH2 0xFFFF AND GT PUSH2 0xBF2 JUMPI PUSH1 0x40 MLOAD PUSH3 0x461BCD PUSH1 0xE5 SHL DUP2 MSTORE PUSH1 0x20 PUSH1 0x4 DUP3 ADD MSTORE PUSH1 0xB PUSH1 0x24 DUP3 ADD MSTORE PUSH11 0x50657263656E74203D203 PUSH1 0xAC SHL PUSH1 0x44 DUP3 ADD MSTORE PUSH1 0x64 ADD PUSH2 0x4FC JUMP JUMPDEST PUSH1 0x1 SLOAD PUSH1 0x40 DUP1 MLOAD PUSH2 0xFFFF SWAP3 DUP4 AND DUP2 MSTORE SWAP2 DUP5 AND PUSH1 0x20 DUP4 ADD MSTORE PUSH32 0xD91CBBF82ADDF9D2A6DFF4ED0A48849D842D53FCEDC3508937B480D1D870ACFF SWAP2 ADD PUSH1 0x40 MLOAD DUP1 SWAP2 SUB SWAP1 LOG1 POP PUSH1 0x1 DUP1 SLOAD PUSH2 0xFFFF NOT AND PUSH2 0xFFFF SWAP3 SWAP1 SWAP3 AND SWAP2 SWAP1 SWAP2 OR SWAP1 SSTORE JUMP JUMPDEST PUSH1 0x0 PUSH2 0x4A1 PUSH1 0x5 PUSH2 0xDDF JUMP JUMPDEST PUSH1 0x0 DUP1 MLOAD PUSH1 0x20 PUSH2 0x1606 DUP4 CODECOPY DUP2 MLOAD SWAP2 MSTORE PUSH2 0xC71 DUP2 PUSH2 0xDD5 JUMP JUMPDEST PUSH1 0x7 SLOAD PUSH1 0xFF AND ISZERO PUSH2 0xC94 JUMPI PUSH1 0x40 MLOAD PUSH3 0x461BCD PUSH1 0xE5 SHL DUP2 MSTORE PUSH1 0x4 ADD PUSH2 0x4FC SWAP1 PUSH2 0x1590 JUMP JUMPDEST PUSH1 0x1 PUSH1 0x1 PUSH1 0xA0 SHL SUB DUP3 AND PUSH2 0xCD9 JUMPI PUSH1 0x40 MLOAD PUSH3 0x461BCD PUSH1 0xE5 SHL DUP2 MSTORE PUSH1 0x20 PUSH1 0x4 DUP3 ADD MSTORE PUSH1 0xC PUSH1 0x24 DUP3 ADD MSTORE PUSH12 0x5A65726F2061646472657373 PUSH1 0xA0 SHL PUSH1 0x44 DUP3 ADD MSTORE PUSH1 0x64 ADD PUSH2 0x4FC JUMP JUMPDEST PUSH1 0x4 SLOAD PUSH2 0xCE6 PUSH1 0x5 PUSH2 0xDDF JUMP JUMPDEST LT PUSH2 0xD33 JUMPI PUSH1 0x40 MLOAD PUSH3 0x461BCD PUSH1 0xE5 SHL DUP2 MSTORE PUSH1 0x20 PUSH1 0x4 DUP3 ADD MSTORE PUSH1 0x18 PUSH1 0x24 DUP3 ADD MSTORE PUSH32 0x4D6178207061727469636970616E747320726561636865640000000000000000 PUSH1 0x44 DUP3 ADD MSTORE PUSH1 0x64 ADD PUSH2 0x4FC JUMP JUMPDEST PUSH2 0xD3E PUSH1 0x5 DUP4 PUSH2 0x118A JUMP JUMPDEST PUSH2 0xD7A JUMPI PUSH1 0x40 MLOAD PUSH3 0x461BCD PUSH1 0xE5 SHL DUP2 MSTORE PUSH1 0x20 PUSH1 0x4 DUP3 ADD MSTORE PUSH1 0xD PUSH1 0x24 DUP3 ADD MSTORE PUSH13 0x105B1C9958591E481859191959 PUSH1 0x9A SHL PUSH1 0x44 DUP3 ADD MSTORE PUSH1 0x64 ADD PUSH2 0x4FC JUMP JUMPDEST PUSH1 0x40 MLOAD PUSH1 0x1 PUSH1 0x1 PUSH1 0xA0 SHL SUB DUP4 AND SWAP1 PUSH32 0x31D3AC54DA09405B02D1DE0EE0DE648DE637FBDC111123BE0D7FC31F2A544C0B SWAP1 PUSH1 0x0 SWAP1 LOG2 POP POP JUMP JUMPDEST PUSH1 0x0 PUSH2 0xDBD DUP2 PUSH2 0xDD5 JUMP JUMPDEST PUSH2 0x5A5 PUSH1 0x0 DUP1 MLOAD PUSH1 0x20 PUSH2 0x1606 DUP4 CODECOPY DUP2 MLOAD SWAP2 MSTORE DUP4 PUSH2 0xDE9 JUMP JUMPDEST PUSH2 0xB3F DUP2 CALLER PUSH2 0x119F JUMP JUMPDEST PUSH1 0x0 PUSH2 0x489 DUP3 SLOAD SWAP1 JUMP JUMPDEST PUSH1 0x0 PUSH2 0xDF5 DUP4 DUP4 PUSH2 0x7DF JUMP JUMPDEST PUSH2 0xE73 JUMPI PUSH1 0x0 DUP4 DUP2 MSTORE PUSH1 0x20 DUP2 DUP2 MSTORE PUSH1 0x40 DUP1 DUP4 KECCAK256 PUSH1 0x1 PUSH1 0x1 PUSH1 0xA0 SHL SUB DUP7 AND DUP5 MSTORE SWAP1 SWAP2 MSTORE SWAP1 KECCAK256 DUP1 SLOAD PUSH1 0xFF NOT AND PUSH1 0x1 OR SWAP1 SSTORE PUSH2 0xE2B CALLER SWAP1 JUMP JUMPDEST PUSH1 0x1 PUSH1 0x1 PUSH1 0xA0 SHL SUB AND DUP3 PUSH1 0x1 PUSH1 0x1 PUSH1 0xA0 SHL SUB AND DUP5 PUSH32 0x2F8788117E7EFF1D82E926EC794901D17C78024A50270940304540A733656F0D PUSH1 0x40 MLOAD PUSH1 0x40 MLOAD DUP1 SWAP2 SUB SWAP1 LOG4 POP PUSH1 0x1 PUSH2 0x489 JUMP JUMPDEST POP PUSH1 0x0 PUSH2 0x489 JUMP JUMPDEST PUSH1 0x0 PUSH2 0xE87 DUP4 DUP4 PUSH2 0x7DF JUMP JUMPDEST ISZERO PUSH2 0xE73 JUMPI PUSH1 0x0 DUP4 DUP2 MSTORE PUSH1 0x20 DUP2 DUP2 MSTORE PUSH1 0x40 DUP1 DUP4 KECCAK256 PUSH1 0x1 PUSH1 0x1 PUSH1 0xA0 SHL SUB DUP7 AND DUP1 DUP6 MSTORE SWAP3 MSTORE DUP1 DUP4 KECCAK256 DUP1 SLOAD PUSH1 0xFF NOT AND SWAP1 SSTORE MLOAD CALLER SWAP3 DUP7 SWAP2 PUSH32 0xF6391F5C32D9C69D2A47EA670B442974B53935D1EDC7FD64EB21E047A839171B SWAP2 SWAP1 LOG4 POP PUSH1 0x1 PUSH2 0x489 JUMP JUMPDEST PUSH1 0x60 PUSH1 0x0 PUSH2 0xEF3 DUP4 PUSH2 0x11DC JUMP JUMPDEST SWAP4 SWAP3 POP POP POP JUMP JUMPDEST PUSH1 0x0 PUSH2 0xEF3 DUP4 PUSH1 0x1 PUSH1 0x1 PUSH1 0xA0 SHL SUB DUP5 AND PUSH2 0x1238 JUMP JUMPDEST PUSH1 0x3 SLOAD NUMBER GT PUSH2 0xF60 JUMPI PUSH1 0x40 MLOAD PUSH3 0x461BCD PUSH1 0xE5 SHL DUP2 MSTORE PUSH1 0x20 PUSH1 0x4 DUP3 ADD MSTORE PUSH1 0x1E PUSH1 0x24 DUP3 ADD MSTORE PUSH32 0x416C7265616479206469737472696275746564207468697320626C6F636B0000 PUSH1 0x44 DUP3 ADD MSTORE PUSH1 0x64 ADD PUSH2 0x4FC JUMP JUMPDEST NUMBER PUSH1 0x3 SSTORE PUSH1 0x0 PUSH2 0xF70 PUSH1 0x5 PUSH2 0xDDF JUMP JUMPDEST PUSH1 0x1 SLOAD SWAP1 SWAP2 POP PUSH2 0xFFFF AND PUSH1 0x0 JUMPDEST DUP3 DUP2 LT ISZERO PUSH2 0x1135 JUMPI PUSH1 0x0 PUSH2 0xF92 PUSH1 0x5 DUP4 PUSH2 0x117E JUMP JUMPDEST PUSH1 0x40 MLOAD PUSH4 0x70A08231 PUSH1 0xE0 SHL DUP2 MSTORE PUSH1 0x1 PUSH1 0x1 PUSH1 0xA0 SHL SUB DUP1 DUP4 AND PUSH1 0x4 DUP4 ADD MSTORE SWAP2 SWAP3 POP PUSH1 0x0 SWAP2 PUSH32 0x0 AND SWAP1 PUSH4 0x70A08231 SWAP1 PUSH1 0x24 ADD PUSH1 0x20 PUSH1 0x40 MLOAD DUP1 DUP4 SUB DUP2 DUP7 GAS STATICCALL ISZERO DUP1 ISZERO PUSH2 0xFFE JUMPI RETURNDATASIZE PUSH1 0x0 DUP1 RETURNDATACOPY RETURNDATASIZE PUSH1 0x0 REVERT JUMPDEST POP POP POP POP PUSH1 0x40 MLOAD RETURNDATASIZE PUSH1 0x1F NOT PUSH1 0x1F DUP3 ADD AND DUP3 ADD DUP1 PUSH1 0x40 MSTORE POP DUP2 ADD SWAP1 PUSH2 0x1022 SWAP2 SWAP1 PUSH2 0x153E JUMP JUMPDEST SWAP1 POP DUP1 PUSH1 0x0 SUB PUSH2 0x1033 JUMPI POP POP PUSH2 0x112D JUMP JUMPDEST PUSH1 0x0 PUSH2 0x2710 PUSH2 0x1046 PUSH2 0xFFFF DUP8 AND DUP5 PUSH2 0x1557 JUMP JUMPDEST PUSH2 0x1050 SWAP2 SWAP1 PUSH2 0x156E JUMP JUMPDEST SWAP1 POP DUP1 ISZERO PUSH2 0x1129 JUMPI PUSH1 0x40 MLOAD PUSH4 0x40C10F19 PUSH1 0xE0 SHL DUP2 MSTORE PUSH1 0x1 PUSH1 0x1 PUSH1 0xA0 SHL SUB DUP5 DUP2 AND PUSH1 0x4 DUP4 ADD MSTORE PUSH1 0x24 DUP3 ADD DUP4 SWAP1 MSTORE PUSH32 0x0 AND SWAP1 PUSH4 0x40C10F19 SWAP1 PUSH1 0x44 ADD PUSH1 0x0 PUSH1 0x40 MLOAD DUP1 DUP4 SUB DUP2 PUSH1 0x0 DUP8 DUP1 EXTCODESIZE ISZERO DUP1 ISZERO PUSH2 0x10C2 JUMPI PUSH1 0x0 DUP1 REVERT JUMPDEST POP GAS CALL ISZERO DUP1 ISZERO PUSH2 0x10D6 JUMPI RETURNDATASIZE PUSH1 0x0 DUP1 RETURNDATACOPY RETURNDATASIZE PUSH1 0x0 REVERT JUMPDEST POP POP PUSH1 0x40 DUP1 MLOAD DUP6 DUP2 MSTORE PUSH1 0x20 DUP2 ADD DUP6 SWAP1 MSTORE PUSH2 0xFFFF DUP10 AND DUP2 DUP4 ADD MSTORE SWAP1 MLOAD PUSH1 0x1 PUSH1 0x1 PUSH1 0xA0 SHL SUB DUP8 AND SWAP4 POP PUSH31 0xDA9A0B51B3FC99FA1E810E60EC1FBCE431C200276D86ED09DACA93865A7AD5 SWAP3 POP SWAP1 DUP2 SWAP1 SUB PUSH1 0x60 ADD SWAP1 LOG2 JUMPDEST POP POP POP JUMPDEST PUSH1 0x1 ADD PUSH2 0xF7D JUMP JUMPDEST POP PUSH1 0x40 DUP1 MLOAD NUMBER DUP2 MSTORE PUSH2 0xFFFF DUP4 AND PUSH1 0x20 DUP3 ADD MSTORE SWAP1 DUP2 ADD DUP4 SWAP1 MSTORE PUSH32 0x4A746DE4277ADDA7CB39CDAC32464B739A41C99EE6559B8D4024EA6191A2059A SWAP1 PUSH1 0x60 ADD PUSH1 0x40 MLOAD DUP1 SWAP2 SUB SWAP1 LOG1 POP POP JUMP JUMPDEST PUSH1 0x0 PUSH2 0xEF3 DUP4 DUP4 PUSH2 0x132B JUMP JUMPDEST PUSH1 0x0 PUSH2 0xEF3 DUP4 PUSH1 0x1 PUSH1 0x1 PUSH1 0xA0 SHL SUB DUP5 AND PUSH2 0x1355 JUMP JUMPDEST PUSH2 0x11A9 DUP3 DUP3 PUSH2 0x7DF JUMP JUMPDEST PUSH2 0x11D8 JUMPI PUSH1 0x40 MLOAD PUSH4 0xE2517D3F PUSH1 0xE0 SHL DUP2 MSTORE PUSH1 0x1 PUSH1 0x1 PUSH1 0xA0 SHL SUB DUP3 AND PUSH1 0x4 DUP3 ADD MSTORE PUSH1 0x24 DUP2 ADD DUP4 SWAP1 MSTORE PUSH1 0x44 ADD PUSH2 0x4FC JUMP JUMPDEST POP POP JUMP JUMPDEST PUSH1 0x60 DUP2 PUSH1 0x0 ADD DUP1 SLOAD DUP1 PUSH1 0x20 MUL PUSH1 0x20 ADD PUSH1 0x40 MLOAD SWAP1 DUP2 ADD PUSH1 0x40 MSTORE DUP1 SWAP3 SWAP2 SWAP1 DUP2 DUP2 MSTORE PUSH1 0x20 ADD DUP3 DUP1 SLOAD DUP1 ISZERO PUSH2 0x122C JUMPI PUSH1 0x20 MUL DUP3 ADD SWAP2 SWAP1 PUSH1 0x0 MSTORE PUSH1 0x20 PUSH1 0x0 KECCAK256 SWAP1 JUMPDEST DUP2 SLOAD DUP2 MSTORE PUSH1 0x20 ADD SWAP1 PUSH1 0x1 ADD SWAP1 DUP1 DUP4 GT PUSH2 0x1218 JUMPI JUMPDEST POP POP POP POP POP SWAP1 POP SWAP2 SWAP1 POP JUMP JUMPDEST PUSH1 0x0 DUP2 DUP2 MSTORE PUSH1 0x1 DUP4 ADD PUSH1 0x20 MSTORE PUSH1 0x40 DUP2 KECCAK256 SLOAD DUP1 ISZERO PUSH2 0x1321 JUMPI PUSH1 0x0 PUSH2 0x125C PUSH1 0x1 DUP4 PUSH2 0x15DC JUMP JUMPDEST DUP6 SLOAD SWAP1 SWAP2 POP PUSH1 0x0 SWAP1 PUSH2 0x1270 SWAP1 PUSH1 0x1 SWAP1 PUSH2 0x15DC JUMP JUMPDEST SWAP1 POP DUP1 DUP3 EQ PUSH2 0x12D5 JUMPI PUSH1 0x0 DUP7 PUSH1 0x0 ADD DUP3 DUP2 SLOAD DUP2 LT PUSH2 0x1290 JUMPI PUSH2 0x1290 PUSH2 0x15C6 JUMP JUMPDEST SWAP1 PUSH1 0x0 MSTORE PUSH1 0x20 PUSH1 0x0 KECCAK256 ADD SLOAD SWAP1 POP DUP1 DUP8 PUSH1 0x0 ADD DUP5 DUP2 SLOAD DUP2 LT PUSH2 0x12B3 JUMPI PUSH2 0x12B3 PUSH2 0x15C6 JUMP JUMPDEST PUSH1 0x0 SWAP2 DUP3 MSTORE PUSH1 0x20 DUP1 DUP4 KECCAK256 SWAP1 SWAP2 ADD SWAP3 SWAP1 SWAP3 SSTORE SWAP2 DUP3 MSTORE PUSH1 0x1 DUP9 ADD SWAP1 MSTORE PUSH1 0x40 SWAP1 KECCAK256 DUP4 SWAP1 SSTORE JUMPDEST DUP6 SLOAD DUP7 SWAP1 DUP1 PUSH2 0x12E6 JUMPI PUSH2 0x12E6 PUSH2 0x15EF JUMP JUMPDEST PUSH1 0x1 SWAP1 SUB DUP2 DUP2 SWAP1 PUSH1 0x0 MSTORE PUSH1 0x20 PUSH1 0x0 KECCAK256 ADD PUSH1 0x0 SWAP1 SSTORE SWAP1 SSTORE DUP6 PUSH1 0x1 ADD PUSH1 0x0 DUP7 DUP2 MSTORE PUSH1 0x20 ADD SWAP1 DUP2 MSTORE PUSH1 0x20 ADD PUSH1 0x0 KECCAK256 PUSH1 0x0 SWAP1 SSTORE PUSH1 0x1 SWAP4 POP POP POP POP PUSH2 0x489 JUMP JUMPDEST PUSH1 0x0 SWAP2 POP POP PUSH2 0x489 JUMP JUMPDEST PUSH1 0x0 DUP3 PUSH1 0x0 ADD DUP3 DUP2 SLOAD DUP2 LT PUSH2 0x1342 JUMPI PUSH2 0x1342 PUSH2 0x15C6 JUMP JUMPDEST SWAP1 PUSH1 0x0 MSTORE PUSH1 0x20 PUSH1 0x0 KECCAK256 ADD SLOAD SWAP1 POP SWAP3 SWAP2 POP POP JUMP JUMPDEST PUSH1 0x0 DUP2 DUP2 MSTORE PUSH1 0x1 DUP4 ADD PUSH1 0x20 MSTORE PUSH1 0x40 DUP2 KECCAK256 SLOAD PUSH2 0xE73 JUMPI POP DUP2 SLOAD PUSH1 0x1 DUP2 DUP2 ADD DUP5 SSTORE PUSH1 0x0 DUP5 DUP2 MSTORE PUSH1 0x20 DUP1 DUP3 KECCAK256 SWAP1 SWAP4 ADD DUP5 SWAP1 SSTORE DUP5 SLOAD DUP5 DUP3 MSTORE DUP3 DUP7 ADD SWAP1 SWAP4 MSTORE PUSH1 0x40 SWAP1 KECCAK256 SWAP2 SWAP1 SWAP2 SSTORE PUSH2 0x489 JUMP JUMPDEST PUSH1 0x0 PUSH1 0x20 DUP3 DUP5 SUB SLT ISZERO PUSH2 0x13AE JUMPI PUSH1 0x0 DUP1 REVERT JUMPDEST DUP2 CALLDATALOAD PUSH1 0x1 PUSH1 0x1 PUSH1 0xE0 SHL SUB NOT DUP2 AND DUP2 EQ PUSH2 0xEF3 JUMPI PUSH1 0x0 DUP1 REVERT JUMPDEST PUSH1 0x0 PUSH1 0x20 DUP3 DUP5 SUB SLT ISZERO PUSH2 0x13D8 JUMPI PUSH1 0x0 DUP1 REVERT JUMPDEST POP CALLDATALOAD SWAP2 SWAP1 POP JUMP JUMPDEST DUP1 CALLDATALOAD PUSH1 0x1 PUSH1 0x1 PUSH1 0xA0 SHL SUB DUP2 AND DUP2 EQ PUSH2 0x13F6 JUMPI PUSH1 0x0 DUP1 REVERT JUMPDEST SWAP2 SWAP1 POP JUMP JUMPDEST PUSH1 0x0 DUP1 PUSH1 0x40 DUP4 DUP6 SUB SLT ISZERO PUSH2 0x140E JUMPI PUSH1 0x0 DUP1 REVERT JUMPDEST DUP3 CALLDATALOAD SWAP2 POP PUSH2 0x141E PUSH1 0x20 DUP5 ADD PUSH2 0x13DF JUMP JUMPDEST SWAP1 POP SWAP3 POP SWAP3 SWAP1 POP JUMP JUMPDEST PUSH1 0x0 PUSH1 0x20 DUP3 DUP5 SUB SLT ISZERO PUSH2 0x1439 JUMPI PUSH1 0x0 DUP1 REVERT JUMPDEST PUSH2 0xEF3 DUP3 PUSH2 0x13DF JUMP JUMPDEST PUSH1 0x0 DUP2 MLOAD DUP1 DUP5 MSTORE PUSH1 0x20 DUP1 DUP6 ADD SWAP5 POP PUSH1 0x20 DUP5 ADD PUSH1 0x0 JUMPDEST DUP4 DUP2 LT ISZERO PUSH2 0x147C JUMPI DUP2 MLOAD PUSH1 0x1 PUSH1 0x1 PUSH1 0xA0 SHL SUB AND DUP8 MSTORE SWAP6 DUP3 ADD SWAP6 SWAP1 DUP3 ADD SWAP1 PUSH1 0x1 ADD PUSH2 0x1457 JUMP JUMPDEST POP SWAP5 SWAP6 SWAP5 POP POP POP POP POP JUMP JUMPDEST PUSH1 0x20 DUP2 MSTORE PUSH1 0x0 PUSH2 0xEF3 PUSH1 0x20 DUP4 ADD DUP5 PUSH2 0x1442 JUMP JUMPDEST PUSH1 0x40 DUP2 MSTORE PUSH1 0x0 PUSH2 0x14AD PUSH1 0x40 DUP4 ADD DUP6 PUSH2 0x1442 JUMP JUMPDEST DUP3 DUP2 SUB PUSH1 0x20 DUP5 DUP2 ADD SWAP2 SWAP1 SWAP2 MSTORE DUP5 MLOAD DUP1 DUP4 MSTORE DUP6 DUP3 ADD SWAP3 DUP3 ADD SWAP1 PUSH1 0x0 JUMPDEST DUP2 DUP2 LT ISZERO PUSH2 0x14E4 JUMPI DUP5 MLOAD DUP4 MSTORE SWAP4 DUP4 ADD SWAP4 SWAP2 DUP4 ADD SWAP2 PUSH1 0x1 ADD PUSH2 0x14C8 JUMP JUMPDEST POP SWAP1 SWAP8 SWAP7 POP POP POP POP POP POP POP JUMP JUMPDEST PUSH1 0x0 PUSH1 0x20 DUP3 DUP5 SUB SLT ISZERO PUSH2 0x1503 JUMPI PUSH1 0x0 DUP1 REVERT JUMPDEST DUP2 CALLDATALOAD PUSH2 0xFFFF DUP2 AND DUP2 EQ PUSH2 0xEF3 JUMPI PUSH1 0x0 DUP1 REVERT JUMPDEST PUSH4 0x4E487B71 PUSH1 0xE0 SHL PUSH1 0x0 MSTORE PUSH1 0x11 PUSH1 0x4 MSTORE PUSH1 0x24 PUSH1 0x0 REVERT JUMPDEST DUP1 DUP3 ADD DUP1 DUP3 GT ISZERO PUSH2 0x489 JUMPI PUSH2 0x489 PUSH2 0x1515 JUMP JUMPDEST PUSH1 0x0 PUSH1 0x20 DUP3 DUP5 SUB SLT ISZERO PUSH2 0x1550 JUMPI PUSH1 0x0 DUP1 REVERT JUMPDEST POP MLOAD SWAP2 SWAP1 POP JUMP JUMPDEST DUP1 DUP3 MUL DUP2 ISZERO DUP3 DUP3 DIV DUP5 EQ OR PUSH2 0x489 JUMPI PUSH2 0x489 PUSH2 0x1515 JUMP JUMPDEST PUSH1 0x0 DUP3 PUSH2 0x158B JUMPI PUSH4 0x4E487B71 PUSH1 0xE0 SHL PUSH1 0x0 MSTORE PUSH1 0x12 PUSH1 0x4 MSTORE PUSH1 0x24 PUSH1 0x0 REVERT JUMPDEST POP DIV SWAP1 JUMP JUMPDEST PUSH1 0x20 DUP1 DUP3 MSTORE PUSH1 0x6 SWAP1 DUP3 ADD MSTORE PUSH6 0x14185D5CD959 PUSH1 0xD2 SHL PUSH1 0x40 DUP3 ADD MSTORE PUSH1 0x60 ADD SWAP1 JUMP JUMPDEST PUSH4 0x4E487B71 PUSH1 0xE0 SHL PUSH1 0x0 MSTORE PUSH1 0x41 PUSH1 0x4 MSTORE PUSH1 0x24 PUSH1 0x0 REVERT JUMPDEST PUSH4 0x4E487B71 PUSH1 0xE0 SHL PUSH1 0x0 MSTORE PUSH1 0x32 PUSH1 0x4 MSTORE PUSH1 0x24 PUSH1 0x0 REVERT JUMPDEST DUP2 DUP2 SUB DUP2 DUP2 GT ISZERO PUSH2 0x489 JUMPI PUSH2 0x489 PUSH2 0x1515 JUMP JUMPDEST PUSH4 0x4E487B71 PUSH1 0xE0 SHL PUSH1 0x0 MSTORE PUSH1 0x31 PUSH1 0x4 MSTORE PUSH1 0x24 PUSH1 0x0 REVERT INVALID SWAP8 PUSH7 0x7070C54EF182B0 CREATE2 DUP6 DUP12 SUB 0x4B 0xEA 0xC1 0xB6 RETURN ADDMOD SWAP11 LOG2 0xD3 XOR DUP12 0xB1 0xE8 SWAP3 SWAP16 0x4F 0xA9 0xB9 0x29 LOG2 PUSH5 0x6970667358 0x22 SLT KECCAK256 NUMBER CALLER 0xBE JUMP 0xE RETURN 0xD4 0xB7 0xDA DUP11 MSTORE 0xD4 0xD SAR JUMP SELFBALANCE 0xD4 LOG0 PUSH6 0x2AD7DBB29C2F 0xE9 DUP13 SLOAD 0xD2 SWAP16 0x4B PUSH4 0x64736F6C PUSH4 0x43000818 STOP CALLER "},"methodIdentifiers":{"DEFAULT_ADMIN_ROLE()":"a217fddf","OPERATOR_ROLE()":"f5b541a6","addParticipant(address)":"dfafe10f","blockInterval()":"c4c22e98","canTrigger()":"87729fc8","getParticipants()":"5aa68ac0","getRoleAdmin(bytes32)":"248a9ca3","grantOperator(address)":"e348da13","grantRole(bytes32,address)":"2f2ff15d","hasRole(bytes32,address)":"91d14854","lastTriggerBlock()":"852e546e","maxParticipants()":"24924bf7","nextTriggerBlock()":"16cfdbed","participantsCount()":"dd60c898","pause()":"8456cb59","paused()":"5c975abb","previewAllRewards()":"a0a53ceb","previewUserReward(address)":"590bc9b5","removeParticipant(address)":"668a2001","renounceRole(bytes32,address)":"36568abe","revokeRole(bytes32,address)":"d547741f","rewardPercentBps()":"9b9fb285","setBlockInterval(uint256)":"ba6943f6","setMaxParticipants(uint256)":"2bf7299b","setRewardPercentBps(uint16)":"dc47f4bf","supportsInterface(bytes4)":"01ffc9a7","tokenA()":"0fc63d10","tokenB()":"5f64b55b","triggerIfInterval()":"9b742f07","triggerManual()":"cce8f14c","unpause()":"3f4ba83a"}}}}}