{
  "_format": "hh-sol-artifact-1",
  "contractName": "TokenB",
  "sourceName": "contracts/token/TokenB.sol",
  "abi": [
    {
      "inputs": [],
      "stateMutability": "nonpayable",
      "type": "constructor"
    },
    {
      "inputs": [
        {
          "internalType": "address",
          "name": "spender",
          "type": "address"
        },
        {
          "internalType": "uint256",
          "name": "allowance",
          "type": "uint256"
        },
        {
          "internalType": "uint256",
          "name": "needed",
          "type": "uint256"
        }
      ],
      "name": "ERC20InsufficientAllowance",
      "type": "error"
    },
    {
      "inputs": [
        {
          "internalType": "address",
          "name": "sender",
          "type": "address"
        },
        {
          "internalType": "uint256",
          "name": "balance",
          "type": "uint256"
        },
        {
          "internalType": "uint256",
          "name": "needed",
          "type": "uint256"
        }
      ],
      "name": "ERC20InsufficientBalance",
      "type": "error"
    },
    {
      "inputs": [
        {
          "internalType": "address",
          "name": "approver",
          "type": "address"
        }
      ],
      "name": "ERC20InvalidApprover",
      "type": "error"
    },
    {
      "inputs": [
        {
          "internalType": "address",
          "name": "receiver",
          "type": "address"
        }
      ],
      "name": "ERC20InvalidReceiver",
      "type": "error"
    },
    {
      "inputs": [
        {
          "internalType": "address",
          "name": "sender",
          "type": "address"
        }
      ],
      "name": "ERC20InvalidSender",
      "type": "error"
    },
    {
      "inputs": [
        {
          "internalType": "address",
          "name": "spender",
          "type": "address"
        }
      ],
      "name": "ERC20InvalidSpender",
      "type": "error"
    },
    {
      "inputs": [],
      "name": "EnforcedPause",
      "type": "error"
    },
    {
      "inputs": [],
      "name": "ExpectedPause",
      "type": "error"
    },
    {
      "inputs": [
        {
          "internalType": "address",
          "name": "owner",
          "type": "address"
        }
      ],
      "name": "OwnableInvalidOwner",
      "type": "error"
    },
    {
      "inputs": [
        {
          "internalType": "address",
          "name": "account",
          "type": "address"
        }
      ],
      "name": "OwnableUnauthorizedAccount",
      "type": "error"
    },
    {
      "anonymous": false,
      "inputs": [
        {
          "indexed": true,
          "internalType": "address",
          "name": "owner",
          "type": "address"
        },
        {
          "indexed": true,
          "internalType": "address",
          "name": "spender",
          "type": "address"
        },
        {
          "indexed": false,
          "internalType": "uint256",
          "name": "value",
          "type": "uint256"
        }
      ],
      "name": "Approval",
      "type": "event"
    },
    {
      "anonymous": false,
      "inputs": [
        {
          "indexed": true,
          "internalType": "address",
          "name": "previousOwner",
          "type": "address"
        },
        {
          "indexed": true,
          "internalType": "address",
          "name": "newOwner",
          "type": "address"
        }
      ],
      "name": "OwnershipTransferred",
      "type": "event"
    },
    {
      "anonymous": false,
      "inputs": [
        {
          "indexed": false,
          "internalType": "address",
          "name": "account",
          "type": "address"
        }
      ],
      "name": "Paused",
      "type": "event"
    },
    {
      "anonymous": false,
      "inputs": [
        {
          "indexed": true,
          "internalType": "address",
          "name": "from",
          "type": "address"
        },
        {
          "indexed": true,
          "internalType": "address",
          "name": "to",
          "type": "address"
        },
        {
          "indexed": false,
          "internalType": "uint256",
          "name": "value",
          "type": "uint256"
        }
      ],
      "name": "Transfer",
      "type": "event"
    },
    {
      "anonymous": false,
      "inputs": [
        {
          "indexed": false,
          "internalType": "address",
          "name": "account",
          "type": "address"
        }
      ],
      "name": "Unpaused",
      "type": "event"
    },
    {
      "inputs": [
        {
          "internalType": "address",
          "name": "owner",
          "type": "address"
        },
        {
          "internalType": "address",
          "name": "spender",
          "type": "address"
        }
      ],
      "name": "allowance",
      "outputs": [
        {
          "internalType": "uint256",
          "name": "",
          "type": "uint256"
        }
      ],
      "stateMutability": "view",
      "type": "function"
    },
    {
      "inputs": [
        {
          "internalType": "address",
          "name": "spender",
          "type": "address"
        },
        {
          "internalType": "uint256",
          "name": "value",
          "type": "uint256"
        }
      ],
      "name": "approve",
      "outputs": [
        {
          "internalType": "bool",
          "name": "",
          "type": "bool"
        }
      ],
      "stateMutability": "nonpayable",
      "type": "function"
    },
    {
      "inputs": [
        {
          "internalType": "address",
          "name": "account",
          "type": "address"
        }
      ],
      "name": "balanceOf",
      "outputs": [
        {
          "internalType": "uint256",
          "name": "",
          "type": "uint256"
        }
      ],
      "stateMutability": "view",
      "type": "function"
    },
    {
      "inputs": [],
      "name": "decimals",
      "outputs": [
        {
          "internalType": "uint8",
          "name": "",
          "type": "uint8"
        }
      ],
      "stateMutability": "view",
      "type": "function"
    },
    {
      "inputs": [
        {
          "internalType": "address",
          "name": "to",
          "type": "address"
        },
        {
          "internalType": "uint256",
          "name": "amount",
          "type": "uint256"
        }
      ],
      "name": "mint",
      "outputs": [],
      "stateMutability": "nonpayable",
      "type": "function"
    },
    {
      "inputs": [],
      "name": "name",
      "outputs": [
        {
          "internalType": "string",
          "name": "",
          "type": "string"
        }
      ],
      "stateMutability": "view",
      "type": "function"
    },
    {
      "inputs": [],
      "name": "owner",
      "outputs": [
        {
          "internalType": "address",
          "name": "",
          "type": "address"
        }
      ],
      "stateMutability": "view",
      "type": "function"
    },
    {
      "inputs": [],
      "name": "pause",
      "outputs": [],
      "stateMutability": "nonpayable",
      "type": "function"
    },
    {
      "inputs": [],
      "name": "paused",
      "outputs": [
        {
          "internalType": "bool",
          "name": "",
          "type": "bool"
        }
      ],
      "stateMutability": "view",
      "type": "function"
    },
    {
      "inputs": [],
      "name": "renounceOwnership",
      "outputs": [],
      "stateMutability": "nonpayable",
      "type": "function"
    },
    {
      "inputs": [],
      "name": "symbol",
      "outputs": [
        {
          "internalType": "string",
          "name": "",
          "type": "string"
        }
      ],
      "stateMutability": "view",
      "type": "function"
    },
    {
      "inputs": [],
      "name": "totalSupply",
      "outputs": [
        {
          "internalType": "uint256",
          "name": "",
          "type": "uint256"
        }
      ],
      "stateMutability": "view",
      "type": "function"
    },
    {
      "inputs": [
        {
          "internalType": "address",
          "name": "to",
          "type": "address"
        },
        {
          "internalType": "uint256",
          "name": "value",
          "type": "uint256"
        }
      ],
      "name": "transfer",
      "outputs": [
        {
          "internalType": "bool",
          "name": "",
          "type": "bool"
        }
      ],
      "stateMutability": "nonpayable",
      "type": "function"
    },
    {
      "inputs": [
        {
          "internalType": "address",
          "name": "from",
          "type": "address"
        },
        {
          "internalType": "address",
          "name": "to",
          "type": "address"
        },
        {
          "internalType": "uint256",
          "name": "value",
          "type": "uint256"
        }
      ],
      "name": "transferFrom",
      "outputs": [
        {
          "internalType": "bool",
          "name": "",
          "type": "bool"
        }
      ],
      "stateMutability": "nonpayable",
      "type": "function"
    },
    {
      "inputs": [
        {
          "internalType": "address",
          "name": "newOwner",
          "type": "address"
        }
      ],
      "name": "transferOwnership",
      "outputs": [],
      "stateMutability": "nonpayable",
      "type": "function"
    },
    {
      "inputs": [],
      "name": "unpause",
      "outputs": [],
      "stateMutability": "nonpayable",
      "type": "function"
    }
  ],
  "bytecode": "0x608060405234801561001057600080fd5b5033604051806040016040528060068152602001652a37b5b2b72160d11b815250604051806040016040528060038152602001622a25a160e91b815250816003908161005c91906101a2565b50600461006982826101a2565b5050506001600160a01b03811661009a57604051631e4fbdf760e01b81526000600482015260240160405180910390fd5b6100a3816100a9565b50610260565b600580546001600160a01b03838116610100818102610100600160a81b031985161790945560405193909204169182907f8be0079c531659141344cd1fd0a4f28419497f9722a3daafe3b4186f6b6457e090600090a35050565b634e487b7160e01b600052604160045260246000fd5b600181811c9082168061012d57607f821691505b60208210810361014d57634e487b7160e01b600052602260045260246000fd5b50919050565b601f82111561019d57806000526020600020601f840160051c8101602085101561017a5750805b601f840160051c820191505b8181101561019a5760008155600101610186565b50505b505050565b81516001600160401b038111156101bb576101bb610103565b6101cf816101c98454610119565b84610153565b6020601f82116001811461020357600083156101eb5750848201515b600019600385901b1c1916600184901b17845561019a565b600084815260208120601f198516915b828110156102335787850151825560209485019460019092019101610213565b50848210156102515786840151600019600387901b60f8161c191681555b50505050600190811b01905550565b610a378061026f6000396000f3fe608060405234801561001057600080fd5b50600436106101005760003560e01c806370a082311161009757806395d89b411161006657806395d89b4114610204578063a9059cbb1461020c578063dd62ed3e1461021f578063f2fde38b1461025857600080fd5b806370a08231146101a2578063715018a6146101cb5780638456cb59146101d35780638da5cb5b146101db57600080fd5b8063313ce567116100d3578063313ce5671461016b5780633f4ba83a1461017a57806340c10f19146101845780635c975abb1461019757600080fd5b806306fdde0314610105578063095ea7b31461012357806318160ddd1461014657806323b872dd14610158575b600080fd5b61010d61026b565b60405161011a9190610880565b60405180910390f35b6101366101313660046108ea565b6102fd565b604051901515815260200161011a565b6002545b60405190815260200161011a565b610136610166366004610914565b610317565b6040516012815260200161011a565b61018261033b565b005b6101826101923660046108ea565b61034d565b60055460ff16610136565b61014a6101b0366004610951565b6001600160a01b031660009081526020819052604090205490565b610182610363565b610182610375565b60055461010090046001600160a01b03166040516001600160a01b03909116815260200161011a565b61010d610385565b61013661021a3660046108ea565b610394565b61014a61022d366004610973565b6001600160a01b03918216600090815260016020908152604080832093909416825291909152205490565b610182610266366004610951565b6103a2565b60606003805461027a906109a6565b80601f01602080910402602001604051908101604052809291908181526020018280546102a6906109a6565b80156102f35780601f106102c8576101008083540402835291602001916102f3565b820191906000526020600020905b8154815290600101906020018083116102d657829003601f168201915b5050505050905090565b60003361030b8185856103e5565b60019150505b92915050565b6000336103258582856103f7565b610330858585610476565b506001949350505050565b6103436104d5565b61034b610508565b565b6103556104d5565b61035f828261055a565b5050565b61036b6104d5565b61034b6000610590565b61037d6104d5565b61034b6105ea565b60606004805461027a906109a6565b60003361030b818585610476565b6103aa6104d5565b6001600160a01b0381166103d957604051631e4fbdf760e01b8152600060048201526024015b60405180910390fd5b6103e281610590565b50565b6103f28383836001610627565b505050565b6001600160a01b03838116600090815260016020908152604080832093861683529290522054600019811015610470578181101561046157604051637dc7a0d960e11b81526001600160a01b038416600482015260248101829052604481018390526064016103d0565b61047084848484036000610627565b50505050565b6001600160a01b0383166104a057604051634b637e8f60e11b8152600060048201526024016103d0565b6001600160a01b0382166104ca5760405163ec442f0560e01b8152600060048201526024016103d0565b6103f28383836106fc565b6005546001600160a01b0361010090910416331461034b5760405163118cdaa760e01b81523360048201526024016103d0565b61051061070f565b6005805460ff191690557f5db9ee0a495bf2e6ff9c91a7834c1ba4fdd244a5e8aa4e537bd38aeae4b073aa335b6040516001600160a01b03909116815260200160405180910390a1565b6001600160a01b0382166105845760405163ec442f0560e01b8152600060048201526024016103d0565b61035f600083836106fc565b600580546001600160a01b03838116610100818102610100600160a81b031985161790945560405193909204169182907f8be0079c531659141344cd1fd0a4f28419497f9722a3daafe3b4186f6b6457e090600090a35050565b6105f2610732565b6005805460ff191660011790557f62e78cea01bee320cd4e420270b5ea74000d11b0c9f74754ebdbfc544b05a25861053d3390565b6001600160a01b0384166106515760405163e602df0560e01b8152600060048201526024016103d0565b6001600160a01b03831661067b57604051634a1406b160e11b8152600060048201526024016103d0565b6001600160a01b038085166000908152600160209081526040808320938716835292905220829055801561047057826001600160a01b0316846001600160a01b03167f8c5be1e5ebec7d5bd14f71427d1e84f3dd0314c0f7b2291e5b200ac8c7c3b925846040516106ee91815260200190565b60405180910390a350505050565b610704610732565b6103f2838383610756565b60055460ff1661034b57604051638dfc202b60e01b815260040160405180910390fd5b60055460ff161561034b5760405163d93c066560e01b815260040160405180910390fd5b6001600160a01b03831661078157806002600082825461077691906109e0565b909155506107f39050565b6001600160a01b038316600090815260208190526040902054818110156107d45760405163391434e360e21b81526001600160a01b038516600482015260248101829052604481018390526064016103d0565b6001600160a01b03841660009081526020819052604090209082900390555b6001600160a01b03821661080f5760028054829003905561082e565b6001600160a01b03821660009081526020819052604090208054820190555b816001600160a01b0316836001600160a01b03167fddf252ad1be2c89b69c2b068fc378daa952ba7f163c4a11628f55a4df523b3ef8360405161087391815260200190565b60405180910390a3505050565b602081526000825180602084015260005b818110156108ae5760208186018101516040868401015201610891565b506000604082850101526040601f19601f83011684010191505092915050565b80356001600160a01b03811681146108e557600080fd5b919050565b600080604083850312156108fd57600080fd5b610906836108ce565b946020939093013593505050565b60008060006060848603121561092957600080fd5b610932846108ce565b9250610940602085016108ce565b929592945050506040919091013590565b60006020828403121561096357600080fd5b61096c826108ce565b9392505050565b6000806040838503121561098657600080fd5b61098f836108ce565b915061099d602084016108ce565b90509250929050565b600181811c908216806109ba57607f821691505b6020821081036109da57634e487b7160e01b600052602260045260246000fd5b50919050565b8082018082111561031157634e487b7160e01b600052601160045260246000fdfea2646970667358221220ba591600b3f4e7ffe66e73d31b8c533abec5cd6aed78d3ed1fa99d333ecab95e64736f6c634300081b0033",
  "linkReferences": {},
  "deployedLinkReferences": {}
}