{"abi":[{"type":"constructor","inputs":[],"stateMutability":"nonpayable"},{"type":"function","name":"CREATOR_ROLE","inputs":[],"outputs":[{"name":"","type":"bytes32","internalType":"bytes32"}],"stateMutability":"view"},{"type":"function","name":"DEFAULT_ADMIN_ROLE","inputs":[],"outputs":[{"name":"","type":"bytes32","internalType":"bytes32"}],"stateMutability":"view"},{"type":"function","name":"createPaymentGroup","inputs":[{"name":"_originToken","type":"address","internalType":"address"},{"name":"_paymentToken","type":"address","internalType":"address"},{"name":"_admin","type":"address","internalType":"address"},{"name":"_rewardPercentBps","type":"uint256","internalType":"uint256"}],"outputs":[{"name":"","type":"address","internalType":"address"}],"stateMutability":"nonpayable"},{"type":"function","name":"getAllCreatedGroups","inputs":[],"outputs":[{"name":"","type":"tuple[]","internalType":"struct PaymentGroupFactory.PaymentGroupInfo[]","components":[{"name":"contractAddress","type":"address","internalType":"address"},{"name":"originToken","type":"address","internalType":"address"},{"name":"paymentToken","type":"address","internalType":"address"},{"name":"admin","type":"address","internalType":"address"},{"name":"rewardPercentBps","type":"uint256","internalType":"uint256"},{"name":"createdAt","type":"uint256","internalType":"uint256"}]}],"stateMutability":"view"},{"type":"function","name":"getCreatedGroups","inputs":[{"name":"offset","type":"uint256","internalType":"uint256"},{"name":"limit","type":"uint256","internalType":"uint256"}],"outputs":[{"name":"","type":"tuple[]","internalType":"struct PaymentGroupFactory.PaymentGroupInfo[]","components":[{"name":"contractAddress","type":"address","internalType":"address"},{"name":"originToken","type":"address","internalType":"address"},{"name":"paymentToken","type":"address","internalType":"address"},{"name":"admin","type":"address","internalType":"address"},{"name":"rewardPercentBps","type":"uint256","internalType":"uint256"},{"name":"createdAt","type":"uint256","internalType":"uint256"}]}],"stateMutability":"view"},{"type":"function","name":"getCreatedGroupsCount","inputs":[],"outputs":[{"name":"","type":"uint256","internalType":"uint256"}],"stateMutability":"view"},{"type":"function","name":"getGroupInfo","inputs":[{"name":"contractAddress","type":"address","internalType":"address"}],"outputs":[{"name":"","type":"tuple","internalType":"struct PaymentGroupFactory.PaymentGroupInfo","components":[{"name":"contractAddress","type":"address","internalType":"address"},{"name":"originToken","type":"address","internalType":"address"},{"name":"paymentToken","type":"address","internalType":"address"},{"name":"admin","type":"address","internalType":"address"},{"name":"rewardPercentBps","type":"uint256","internalType":"uint256"},{"name":"createdAt","type":"uint256","internalType":"uint256"}]}],"stateMutability":"view"},{"type":"function","name":"getRoleAdmin","inputs":[{"name":"role","type":"bytes32","internalType":"bytes32"}],"outputs":[{"name":"","type":"bytes32","internalType":"bytes32"}],"stateMutability":"view"},{"type":"function","name":"grantCreatorRole","inputs":[{"name":"account","type":"address","internalType":"address"}],"outputs":[],"stateMutability":"nonpayable"},{"type":"function","name":"grantRole","inputs":[{"name":"role","type":"bytes32","internalType":"bytes32"},{"name":"account","type":"address","internalType":"address"}],"outputs":[],"stateMutability":"nonpayable"},{"type":"function","name":"hasRole","inputs":[{"name":"role","type":"bytes32","internalType":"bytes32"},{"name":"account","type":"address","internalType":"address"}],"outputs":[{"name":"","type":"bool","internalType":"bool"}],"stateMutability":"view"},{"type":"function","name":"renounceRole","inputs":[{"name":"role","type":"bytes32","internalType":"bytes32"},{"name":"callerConfirmation","type":"address","internalType":"address"}],"outputs":[],"stateMutability":"nonpayable"},{"type":"function","name":"revokeCreatorRole","inputs":[{"name":"account","type":"address","internalType":"address"}],"outputs":[],"stateMutability":"nonpayable"},{"type":"function","name":"revokeRole","inputs":[{"name":"role","type":"bytes32","internalType":"bytes32"},{"name":"account","type":"address","internalType":"address"}],"outputs":[],"stateMutability":"nonpayable"},{"type":"function","name":"supportsInterface","inputs":[{"name":"interfaceId","type":"bytes4","internalType":"bytes4"}],"outputs":[{"name":"","type":"bool","internalType":"bool"}],"stateMutability":"view"},{"type":"event","name":"PaymentGroupCreated","inputs":[{"name":"contractAddress","type":"address","indexed":true,"internalType":"address"},{"name":"originToken","type":"address","indexed":true,"internalType":"address"},{"name":"paymentToken","type":"address","indexed":true,"internalType":"address"},{"name":"admin","type":"address","indexed":false,"internalType":"address"},{"name":"rewardPercentBps","type":"uint256","indexed":false,"internalType":"uint256"}],"anonymous":false},{"type":"event","name":"RoleAdminChanged","inputs":[{"name":"role","type":"bytes32","indexed":true,"internalType":"bytes32"},{"name":"previousAdminRole","type":"bytes32","indexed":true,"internalType":"bytes32"},{"name":"newAdminRole","type":"bytes32","indexed":true,"internalType":"bytes32"}],"anonymous":false},{"type":"event","name":"RoleGranted","inputs":[{"name":"role","type":"bytes32","indexed":true,"internalType":"bytes32"},{"name":"account","type":"address","indexed":true,"internalType":"address"},{"name":"sender","type":"address","indexed":true,"internalType":"address"}],"anonymous":false},{"type":"event","name":"RoleRevoked","inputs":[{"name":"role","type":"bytes32","indexed":true,"internalType":"bytes32"},{"name":"account","type":"address","indexed":true,"internalType":"address"},{"name":"sender","type":"address","indexed":true,"internalType":"address"}],"anonymous":false},{"type":"error","name":"AccessControlBadConfirmation","inputs":[]},{"type":"error","name":"AccessControlUnauthorizedAccount","inputs":[{"name":"account","type":"address","internalType":"address"},{"name":"neededRole","type":"bytes32","internalType":"bytes32"}]}],"bytecode":{"object":"0x608060405234801561000f575f5ffd5b5061001a5f3361004b565b506100457f828634d95e775031b9ff576b159a8509d3053581a8c9c4d7d86899e0afcd882f3361004b565b506100f4565b5f828152602081815260408083206001600160a01b038516845290915281205460ff166100eb575f838152602081815260408083206001600160a01b03861684529091529020805460ff191660011790556100a33390565b6001600160a01b0316826001600160a01b0316847f2f8788117e7eff1d82e926ec794901d17c78024a50270940304540a733656f0d60405160405180910390a45060016100ee565b505f5b92915050565b6125ca806101015f395ff3fe608060405234801561000f575f5ffd5b50600436106100f0575f3560e01c806345c98a3f11610093578063a217fddf11610063578063a217fddf14610205578063d547741f1461020c578063d83ff6d01461021f578063edef25ff1461023f575f5ffd5b806345c98a3f146101b85780634d43e6f0146101cb5780638aeda25a146101de57806391d14854146101f2575f5ffd5b80632a530792116100ce5780632a530792146101505780632dabd17b1461017b5780632f2ff15d1461019057806336568abe146101a5575f5ffd5b806301ffc9a7146100f45780632343f1281461011c578063248a9ca31461012e575b5f5ffd5b610107610102366004610c3c565b610252565b60405190151581526020015b60405180910390f35b6001545b604051908152602001610113565b61012061013c366004610c6a565b5f9081526020819052604090206001015490565b61016361015e366004610c9c565b610288565b6040516001600160a01b039091168152602001610113565b6101836106b3565b6040516101139190610d2d565b6101a361019e366004610d7a565b610756565b005b6101a36101b3366004610d7a565b610780565b6101a36101c6366004610da4565b6107b8565b6101a36101d9366004610da4565b6107d9565b6101205f5160206125755f395f51905f5281565b610107610200366004610d7a565b6107fa565b6101205f81565b6101a361021a366004610d7a565b610822565b61023261022d366004610da4565b610846565b6040516101139190610dbd565b61018361024d366004610dcb565b61093d565b5f6001600160e01b03198216637965db0b60e01b148061028257506301ffc9a760e01b6001600160e01b03198316145b92915050565b5f5f5160206125755f395f51905f526102a081610aed565b6001600160a01b0384166102fb5760405162461bcd60e51b815260206004820152601c60248201527f41646d696e20616464726573732063616e6e6f74206265207a65726f0000000060448201526064015b60405180910390fd5b620f424083111561035a5760405162461bcd60e51b8152602060048201526024808201527f5265776172642070657263656e746167652063616e6e6f7420657863656564206044820152633130302560e01b60648201526084016102f2565b5f83116103ba5760405162461bcd60e51b815260206004820152602860248201527f5265776172642070657263656e74616765206d75737420626520677265617465604482015267072207468616e20360c41b60648201526084016102f2565b5f868686866040516103cb90610c2f565b6001600160a01b0394851681529284166020840152921660408201526060810191909152608001604051809103905ff08015801561040b573d5f5f3e3d5ffd5b5090505f8190505f6040518060c00160405280836001600160a01b031681526020018a6001600160a01b03168152602001896001600160a01b03168152602001886001600160a01b03168152602001878152602001428152509050600181908060018154018082558091505060019003905f5260205f2090600602015f909190919091505f820151815f015f6101000a8154816001600160a01b0302191690836001600160a01b031602179055506020820151816001015f6101000a8154816001600160a01b0302191690836001600160a01b031602179055506040820151816002015f6101000a8154816001600160a01b0302191690836001600160a01b031602179055506060820151816003015f6101000a8154816001600160a01b0302191690836001600160a01b031602179055506080820151816004015560a0820151816005015550508060025f846001600160a01b03166001600160a01b031681526020019081526020015f205f820151815f015f6101000a8154816001600160a01b0302191690836001600160a01b031602179055506020820151816001015f6101000a8154816001600160a01b0302191690836001600160a01b031602179055506040820151816002015f6101000a8154816001600160a01b0302191690836001600160a01b031602179055506060820151816003015f6101000a8154816001600160a01b0302191690836001600160a01b031602179055506080820151816004015560a08201518160050155905050876001600160a01b0316896001600160a01b0316836001600160a01b03167f9a23c04e731a632894828f3030437c65a0a93758b443f8c2a61423502bc103bc8a8a60405161069f9291906001600160a01b03929092168252602082015260400190565b60405180910390a450979650505050505050565b60606001805480602002602001604051908101604052809291908181526020015f905b8282101561074d575f8481526020908190206040805160c0810182526006860290920180546001600160a01b03908116845260018083015482168587015260028301548216938501939093526003820154166060840152600481015460808401526005015460a083015290835290920191016106d6565b50505050905090565b5f8281526020819052604090206001015461077081610aed565b61077a8383610afa565b50505050565b6001600160a01b03811633146107a95760405163334bd91960e11b815260040160405180910390fd5b6107b38282610b89565b505050565b5f6107c281610aed565b6107b35f5160206125755f395f51905f5283610b89565b5f6107e381610aed565b6107b35f5160206125755f395f51905f5283610afa565b5f918252602082815260408084206001600160a01b0393909316845291905290205460ff1690565b5f8281526020819052604090206001015461083c81610aed565b61077a8383610b89565b6040805160c0810182525f80825260208201819052918101829052606081018290526080810182905260a08101919091526001600160a01b038281165f90815260026020526040902054166108d25760405162461bcd60e51b815260206004820152601260248201527110dbdb9d1c9858dd081b9bdd08199bdd5b9960721b60448201526064016102f2565b506001600160a01b039081165f90815260026020818152604092839020835160c081018552815486168152600182015486169281019290925291820154841692810192909252600381015490921660608201526004820154608082015260059091015460a082015290565b60015460609083106109885760405162461bcd60e51b81526020600482015260146024820152734f6666736574206f7574206f6620626f756e647360601b60448201526064016102f2565b5f6109938385610dff565b6001549091508111156109a557506001545b5f6109b08583610e12565b90505f8167ffffffffffffffff8111156109cc576109cc610e25565b604051908082528060200260200182016040528015610a2a57816020015b6040805160c0810182525f8082526020808301829052928201819052606082018190526080820181905260a082015282525f199092019101816109ea5790505b5090505f5b82811015610ae3576001610a438289610dff565b81548110610a5357610a53610e39565b5f9182526020918290206040805160c081018252600690930290910180546001600160a01b03908116845260018201548116948401949094526002810154841691830191909152600381015490921660608201526004820154608082015260059091015460a08201528251839083908110610ad057610ad0610e39565b6020908102919091010152600101610a2f565b5095945050505050565b610af78133610bf2565b50565b5f610b0583836107fa565b610b82575f838152602081815260408083206001600160a01b03861684529091529020805460ff19166001179055610b3a3390565b6001600160a01b0316826001600160a01b0316847f2f8788117e7eff1d82e926ec794901d17c78024a50270940304540a733656f0d60405160405180910390a4506001610282565b505f610282565b5f610b9483836107fa565b15610b82575f838152602081815260408083206001600160a01b0386168085529252808320805460ff1916905551339286917ff6391f5c32d9c69d2a47ea670b442974b53935d1edc7fd64eb21e047a839171b9190a4506001610282565b610bfc82826107fa565b610c2b5760405163e2517d3f60e01b81526001600160a01b0382166004820152602481018390526044016102f2565b5050565b61172780610e4e83390190565b5f60208284031215610c4c575f5ffd5b81356001600160e01b031981168114610c63575f5ffd5b9392505050565b5f60208284031215610c7a575f5ffd5b5035919050565b80356001600160a01b0381168114610c97575f5ffd5b919050565b5f5f5f5f60808587031215610caf575f5ffd5b610cb885610c81565b9350610cc660208601610c81565b9250610cd460408601610c81565b9396929550929360600135925050565b80516001600160a01b039081168352602080830151821690840152604080830151821690840152606080830151909116908301526080808201519083015260a090810151910152565b602080825282518282018190525f918401906040840190835b81811015610d6f57610d59838551610ce4565b6020939093019260c09290920191600101610d46565b509095945050505050565b5f5f60408385031215610d8b575f5ffd5b82359150610d9b60208401610c81565b90509250929050565b5f60208284031215610db4575f5ffd5b610c6382610c81565b60c081016102828284610ce4565b5f5f60408385031215610ddc575f5ffd5b50508035926020909101359150565b634e487b7160e01b5f52601160045260245ffd5b8082018082111561028257610282610deb565b8181038181111561028257610282610deb565b634e487b7160e01b5f52604160045260245ffd5b634e487b7160e01b5f52603260045260245ffdfe608060405234801561000f575f5ffd5b5060405161172738038061172783398101604081905261002e916102a6565b6001600160a01b0382166100895760405162461bcd60e51b815260206004820152601c60248201527f41646d696e20616464726573732063616e6e6f74206265207a65726f0000000060448201526064015b60405180910390fd5b620f42408111156100e85760405162461bcd60e51b8152602060048201526024808201527f5265776172642070657263656e746167652063616e6e6f7420657863656564206044820152633130302560e01b6064820152608401610080565b5f81116101485760405162461bcd60e51b815260206004820152602860248201527f5265776172642070657263656e74616765206d75737420626520677265617465604482015267072207468616e20360c41b6064820152608401610080565b6001600160a01b0384161580159061016857506001600160a01b03831615155b1561019e57600180546001600160a01b038087166001600160a01b03199283161790925560028054928616929091169190911790555b60038190556101ad5f836101e2565b506101d87f97667070c54ef182b0f5858b034beac1b6f3089aa2d3188bb1e8929f4fa9b929836101e2565b50505050506102ee565b5f828152602081815260408083206001600160a01b038516845290915281205460ff16610282575f838152602081815260408083206001600160a01b03861684529091529020805460ff1916600117905561023a3390565b6001600160a01b0316826001600160a01b0316847f2f8788117e7eff1d82e926ec794901d17c78024a50270940304540a733656f0d60405160405180910390a4506001610285565b505f5b92915050565b80516001600160a01b03811681146102a1575f5ffd5b919050565b5f5f5f5f608085870312156102b9575f5ffd5b6102c28561028b565b93506102d06020860161028b565b92506102de6040860161028b565b6060959095015193969295505050565b61142c806102fb5f395ff3fe608060405234801561000f575f5ffd5b5060043610610152575f3560e01c8063668a2001116100bf578063cbc7854e11610079578063cbc7854e146102d3578063d547741f146102e6578063dd60c898146102f9578063dfafe10f14610301578063e348da1314610314578063f5b541a614610327575f5ffd5b8063668a20011461027f5780638456cb591461029257806391d148541461029a5780639b9fb285146102ad578063a0a53ceb146102b6578063a217fddf146102cc575f5ffd5b8063340252f811610110578063340252f81461020957806336568abe1461021c5780633f4ba83a1461022f578063590bc9b5146102375780635aa68ac01461025f5780635c975abb14610274575f5ffd5b8062ce20571461015657806301ffc9a71461016057806313096a4114610188578063248a9ca3146101b35780632f2ff15d146101e35780633013ce29146101f6575b5f5ffd5b61015e61033b565b005b61017361016e366004611189565b610389565b60405190151581526020015b60405180910390f35b60015461019b906001600160a01b031681565b6040516001600160a01b03909116815260200161017f565b6101d56101c13660046111b0565b5f9081526020819052604090206001015490565b60405190815260200161017f565b61015e6101f13660046111e2565b6103bf565b60025461019b906001600160a01b031681565b61015e6102173660046111b0565b6103e9565b61015e61022a3660046111e2565b6104f4565b61015e61052c565b61024a61024536600461120c565b61056d565b6040805192835260208301919091520161017f565b61026761066b565b60405161017f9190611268565b60045460ff16610173565b61015e61028d36600461120c565b61067c565b61015e610744565b6101736102a83660046111e2565b610788565b6101d560035481565b6102be6107b0565b60405161017f92919061127a565b6101d55f81565b61015e6102e13660046112d2565b6109c5565b61015e6102f43660046111e2565b610aaa565b6101d5610ace565b61015e61030f36600461120c565b610ad9565b61015e61032236600461120c565b610c02565b6101d55f5160206113d75f395f51905f5281565b5f5160206113d75f395f51905f5261035281610c23565b60045460ff161561037e5760405162461bcd60e51b8152600401610375906112fa565b60405180910390fd5b610386610c2d565b50565b5f6001600160e01b03198216637965db0b60e01b14806103b957506301ffc9a760e01b6001600160e01b03198316145b92915050565b5f828152602081905260409020600101546103d981610c23565b6103e38383610e5e565b50505050565b5f6103f381610c23565b620f42408211156104525760405162461bcd60e51b8152602060048201526024808201527f5265776172642070657263656e746167652063616e6e6f7420657863656564206044820152633130302560e01b6064820152608401610375565b5f82116104b25760405162461bcd60e51b815260206004820152602860248201527f5265776172642070657263656e74616765206d75737420626520677265617465604482015267072207468616e20360c41b6064820152608401610375565b60035460408051918252602082018490527fc4073d2decf8216293c495f2e0637c7768edf742b7827bac153f5b16cf7e0768910160405180910390a150600355565b6001600160a01b038116331461051d5760405163334bd91960e11b815260040160405180910390fd5b6105278282610eed565b505050565b5f61053681610c23565b6004805460ff1916905560405133907f5db9ee0a495bf2e6ff9c91a7834c1ba4fdd244a5e8aa4e537bd38aeae4b073aa905f90a250565b6001545f9081906001600160a01b03166105c95760405162461bcd60e51b815260206004820152601b60248201527f4f726967696e20746f6b656e206e6f7420636f6e6669677572656400000000006044820152606401610375565b6001546040516370a0823160e01b81526001600160a01b038581166004830152909116906370a0823190602401602060405180830381865afa158015610611573d5f5f3e3d5ffd5b505050506040513d601f19601f820116820180604052508101906106359190611326565b9150815f0361064857505f928392509050565b620f42406003548361065a9190611351565b6106649190611368565b9050915091565b60606106776005610f56565b905090565b5f5160206113d75f395f51905f5261069381610c23565b60045460ff16156106b65760405162461bcd60e51b8152600401610375906112fa565b6106c1600583610f69565b61070d5760405162461bcd60e51b815260206004820152601c60248201527f4163636f756e74206973206e6f742061207061727469636970616e74000000006044820152606401610375565b6040516001600160a01b038316907f1a5e355a9a34d7eac1e439a6c610ba1fa72aa45f7645724ce5187fa19c3bd3fc905f90a25050565b5f61074e81610c23565b6004805460ff1916600117905560405133907f62e78cea01bee320cd4e420270b5ea74000d11b0c9f74754ebdbfc544b05a258905f90a250565b5f918252602082815260408084206001600160a01b0393909316845291905290205460ff1690565b60015460609081906001600160a01b031661080d5760405162461bcd60e51b815260206004820152601b60248201527f4f726967696e20746f6b656e206e6f7420636f6e6669677572656400000000006044820152606401610375565b5f6108186005610f7d565b90508067ffffffffffffffff81111561083357610833611387565b60405190808252806020026020018201604052801561085c578160200160208202803683370190505b5092508067ffffffffffffffff81111561087857610878611387565b6040519080825280602002602001820160405280156108a1578160200160208202803683370190505b506003549092505f5b828110156109be575f6108be600583610f86565b9050808683815181106108d3576108d361139b565b6001600160a01b0392831660209182029290920101526001546040516370a0823160e01b815283831660048201525f9291909116906370a0823190602401602060405180830381865afa15801561092c573d5f5f3e3d5ffd5b505050506040513d601f19601f820116820180604052508101906109509190611326565b9050805f0361097d575f86848151811061096c5761096c61139b565b6020026020010181815250506109b4565b620f424061098b8583611351565b6109959190611368565b8684815181106109a7576109a761139b565b6020026020010181815250505b50506001016108aa565b5050509091565b5f6109cf81610c23565b6001600160a01b038316158015906109ef57506001600160a01b03821615155b610a3b5760405162461bcd60e51b815260206004820152601e60248201527f546f6b656e206164647265737365732063616e6e6f74206265207a65726f00006044820152606401610375565b600180546001600160a01b038581166001600160a01b03199283168117909355600280549186169190921681179091556040805192835260208301919091527f11a48fa4f70396ba3d41e839ecc0472a6a18d3a8737dda74dcbf0f18c8cec308910160405180910390a1505050565b5f82815260208190526040902060010154610ac481610c23565b6103e38383610eed565b5f6106776005610f7d565b5f5160206113d75f395f51905f52610af081610c23565b60045460ff1615610b135760405162461bcd60e51b8152600401610375906112fa565b6001600160a01b038216610b745760405162461bcd60e51b815260206004820152602260248201527f5061727469636970616e7420616464726573732063616e6e6f74206265207a65604482015261726f60f01b6064820152608401610375565b610b7f600583610f91565b610bcb5760405162461bcd60e51b815260206004820181905260248201527f4163636f756e7420697320616c72656164792061207061727469636970616e746044820152606401610375565b6040516001600160a01b038316907f31d3ac54da09405b02d1de0ee0de648de637fbdc111123be0d7fc31f2a544c0b905f90a25050565b5f610c0c81610c23565b6105275f5160206113d75f395f51905f5283610e5e565b6103868133610fa5565b6001546001600160a01b031615801590610c5157506002546001600160a01b031615155b610c955760405162461bcd60e51b8152602060048201526015602482015274151bdad95b9cc81b9bdd0818dbdb999a59dd5c9959605a1b6044820152606401610375565b5f610ca06005610f7d565b6003549091505f5b82811015610e18575f610cbc600583610f86565b6001546040516370a0823160e01b81526001600160a01b0380841660048301529293505f92909116906370a0823190602401602060405180830381865afa158015610d09573d5f5f3e3d5ffd5b505050506040513d601f19601f82011682018060405250810190610d2d9190611326565b9050805f03610d3d575050610e10565b5f620f4240610d4c8684611351565b610d569190611368565b90508015610e0c576002546040516340c10f1960e01b81526001600160a01b03858116600483015260248201849052909116906340c10f19906044015f604051808303815f87803b158015610da9575f5ffd5b505af1158015610dbb573d5f5f3e3d5ffd5b505060408051858152602081018590529081018890526001600160a01b03861692507fa4b7979b77c5bef65740b7e1d7a09534eadc2803d5c1cfdae60fa28226be6da2915060600160405180910390a25b5050505b600101610ca8565b5060408051438152602081018390529081018390527f4a746de4277adda7cb39cdac32464b739a41c99ee6559b8d4024ea6191a2059a9060600160405180910390a15050565b5f610e698383610788565b610ee6575f838152602081815260408083206001600160a01b03861684529091529020805460ff19166001179055610e9e3390565b6001600160a01b0316826001600160a01b0316847f2f8788117e7eff1d82e926ec794901d17c78024a50270940304540a733656f0d60405160405180910390a45060016103b9565b505f6103b9565b5f610ef88383610788565b15610ee6575f838152602081815260408083206001600160a01b0386168085529252808320805460ff1916905551339286917ff6391f5c32d9c69d2a47ea670b442974b53935d1edc7fd64eb21e047a839171b9190a45060016103b9565b60605f610f6283610fe2565b9392505050565b5f610f62836001600160a01b03841661103b565b5f6103b9825490565b5f610f62838361111e565b5f610f62836001600160a01b038416611144565b610faf8282610788565b610fde5760405163e2517d3f60e01b81526001600160a01b038216600482015260248101839052604401610375565b5050565b6060815f0180548060200260200160405190810160405280929190818152602001828054801561102f57602002820191905f5260205f20905b81548152602001906001019080831161101b575b50505050509050919050565b5f8181526001830160205260408120548015611115575f61105d6001836113af565b85549091505f90611070906001906113af565b90508082146110cf575f865f01828154811061108e5761108e61139b565b905f5260205f200154905080875f0184815481106110ae576110ae61139b565b5f918252602080832090910192909255918252600188019052604090208390555b85548690806110e0576110e06113c2565b600190038181905f5260205f20015f90559055856001015f8681526020019081526020015f205f9055600193505050506103b9565b5f9150506103b9565b5f825f0182815481106111335761113361139b565b905f5260205f200154905092915050565b5f818152600183016020526040812054610ee657508154600181810184555f8481526020808220909301849055845484825282860190935260409020919091556103b9565b5f60208284031215611199575f5ffd5b81356001600160e01b031981168114610f62575f5ffd5b5f602082840312156111c0575f5ffd5b5035919050565b80356001600160a01b03811681146111dd575f5ffd5b919050565b5f5f604083850312156111f3575f5ffd5b82359150611203602084016111c7565b90509250929050565b5f6020828403121561121c575f5ffd5b610f62826111c7565b5f8151808452602084019350602083015f5b8281101561125e5781516001600160a01b0316865260209586019590910190600101611237565b5093949350505050565b602081525f610f626020830184611225565b604081525f61128c6040830185611225565b82810360208401528084518083526020830191506020860192505f5b818110156112c65783518352602093840193909201916001016112a8565b50909695505050505050565b5f5f604083850312156112e3575f5ffd5b6112ec836111c7565b9150611203602084016111c7565b60208082526012908201527110dbdb9d1c9858dd081a5cc81c185d5cd95960721b604082015260600190565b5f60208284031215611336575f5ffd5b5051919050565b634e487b7160e01b5f52601160045260245ffd5b80820281158282048414176103b9576103b961133d565b5f8261138257634e487b7160e01b5f52601260045260245ffd5b500490565b634e487b7160e01b5f52604160045260245ffd5b634e487b7160e01b5f52603260045260245ffd5b818103818111156103b9576103b961133d565b634e487b7160e01b5f52603160045260245ffdfe97667070c54ef182b0f5858b034beac1b6f3089aa2d3188bb1e8929f4fa9b929a2646970667358221220b0df6b2adae069d5896055bf903d952d23a49eb4f648c052491386ab630607c664736f6c634300081c0033828634d95e775031b9ff576b159a8509d3053581a8c9c4d7d86899e0afcd882fa2646970667358221220f05c3e749d9716732d7ddd2fc10325f9eea942d28652c5b68fe4676a3d05f45d64736f6c634300081c0033","linkReferences":{}},"methodIdentifiers":{"CREATOR_ROLE()":"8aeda25a","DEFAULT_ADMIN_ROLE()":"a217fddf","createPaymentGroup(address,address,address,uint256)":"2a530792","getAllCreatedGroups()":"2dabd17b","getCreatedGroups(uint256,uint256)":"edef25ff","getCreatedGroupsCount()":"2343f128","getGroupInfo(address)":"d83ff6d0","getRoleAdmin(bytes32)":"248a9ca3","grantCreatorRole(address)":"4d43e6f0","grantRole(bytes32,address)":"2f2ff15d","hasRole(bytes32,address)":"91d14854","renounceRole(bytes32,address)":"36568abe","revokeCreatorRole(address)":"45c98a3f","revokeRole(bytes32,address)":"d547741f","supportsInterface(bytes4)":"01ffc9a7"},"id":33}